S014000050726F675F4F70656E424C542E73726563A5
S3150800A0000000012019AA000895A900089DA90008C2
S3150800A010A5A90008ADA90008B5A900080000000018
S3150800A020000000000000000000000000BDA90008B4
S3150800A030CBA9000800000000D9A90008E7A9000874
S3150800A04069AA000869AA000869AA000869AA000896
S3150800A05069AA000869AA000869AA000869AA000886
S3150800A06069AA000869AA000869AA000869AA000876
S3150800A07069AA000869AA000869AA000869AA000866
S3150800A08069AA000869AA000869AA000869AA000856
S3150800A09069AA000869AA000869AA000869AA000846
S3150800A0A069AA000869AA000869AA000869AA000836
S3150800A0B069AA000869AA000869AA000869AA000826
S3150800A0C069AA000869AA000869AA000869AA000816
S3150800A0D069AA000869AA000869AA000869AA000806
S3150800A0E069AA000869AA000869AA000869AA0008F6
S3150800A0F069AA000869AA000869AA000869AA0008E6
S3150800A10069AA0008000000000000000069AA00080B
S3150800A11069AA000869AA000869AA000869AA0008C5
S3150800A12069AA000869AA000869AA000869AA0008B5
S3150800A13069AA000869AA00080000000000000000DB
S3150800A14069AA000869AA000869AA000800000000B0
S3150800A15000000000000000000000000000000000F1
S3150800A16069AA000869AA000869AA000869AA000875
S3150800A17069AA000869AA000869AA000869AA000865
S3150800A18069AA000869AA000800000000000000008B
S3090800A19069AA0008A2
S3110800A20007814B9AD2040000BD2800001C
S3150800A2C010B5054C237833B9044B13B10448AFF3E2
S3150800A2D000800123237010BD0C0000200000000040
S3150800A2E0F8D0000808B5034B1BB103490348AFF380
S3150800A2F0008008BD0000000010000020F8D000080B
S3150800A30080B500AF00F0A0F900F062F900F020F87F
S3150800A31000BF80BD80B500AF00F064F900F01EF8FC
S3150800A32000BF80BD80B400AFBFF34F8F00BF064BA0
S3150800A330DB6803F4E0620449044B1343CB60BFF3C4
S3150800A3404F8F00BF00BFFDE700ED00E00400FA05EF
S3150800A35080B500AF00F074F800BF80BD80B500AFCF
S3150800A36000F0F4F800BF80BD80B500AFFFF7DAFF54
S3150800A37080B586B000AFB9607A603B600346FB8162
S3150800A38002F050FC03462C4AA2FB03239B093B61BF
S3150800A3900023FB7548E0FA89FB7D284911F813303C
S3150800A3A01846FB7D25495B000B445B780344013363
S3150800A3B002FB03F31A463B69B3FBF2F101FB02F217
S3150800A3C09B1A002B2DD1FA89FB7D1C4911F81330F5
S3150800A3D01846FB7D19495B000B445B78034401333F
S3150800A3E002FB03F31A463B69B3FBF2F39AB2BB6866
S3150800A3F01A80BB681B88002B13D0BB681B88B3F573
S3150800A400806F0ED8FB7D0D4A12F813207B681A70F0
S3150800A410FB7D0A4A5B0013445A783B681A7001238D
S3150800A42006E0FB7D0133FB75FB7D112BB3D90023B9
S3150800A43018461837BD4680BDD34D621010D10008A6
S3150800A44080B58EB000AF00237B85002387F82930BE
S3150800A450002387F8283040F26763FB6207F1280378
S3150800A46007F1290207F12A014FF4FA70FFF780FF76
S3150800A470324B334A1A60314B00221A762F4B002290
S3150800A4805A762E4B00229A762C4B0122DA762B4BE3
S3150800A49000221A77294B00225A77284B00229A6005
S3150800A4A0264B0022DA6097F82930013B1B04234A21
S3150800A4B0136197F82830013B1B05204A53617B8DB1
S3150800A4C01A461E4B5A601D4800F036FBFB6A002BE5
S3150800A4D005DBFB6A5B057B631A4B3B630AE0FB6A99
S3150800A4E023F00043FB62FB6ADB0043F004037B6353
S3150800A4F0154B3B6300237B610023BB610123FB6192
S3150800A5007B6B1B0C3B607B6B9BB27B603B6B1B0CBA
S3150800A510BB603B6B9BB2FB6000233B6101233B6244
S3150800A5200E237B623B461946044800F000FC0348AC
S3150800A53000F0C7FC00BF3837BD4680BD28000020A4
S3150800A540006400400400E0FFFCFF1F0080B58CB0EB
S3150800A55000AF40F26763BB62002387F82F303B1DCC
S3150800A56007F10C020021194800F0BFFD0346002B35
S3150800A57027D1BB6A002B0ADBFB68BA6A9A4214D158
S3150800A5807B69002B11D1012387F82F300DE0BB6AB8
S3150800A59023F00043BB623B69BA6A9A4205D17B69DC
S3150800A5A0042B02D1012387F82F3097F82F30012B7F
S3150800A5B007D13B79FF2B04D1FB69022B01D1FFF7A9
S3150800A5C0D3FE00BF3037BD4680BD00BF280000203F
S3150800A5D080B500AF002220214FF0904001F018F915
S3150800A5E000BF80BD80B582B000AF00F034F8786057
S3150800A5F0134B1B687A68D31A40F2DB5293421AD976
S3150800A600104B1B78002B09D10E4B01221A70012220
S3150800A61020214FF0904001F0FBF808E0094B00229A
S3150800A6201A70002220214FF0904001F0F1F8044AF8
S3150800A6307B68136000E000BF0837BD4680BD00BFD9
S3150800A640500000205400002080B400AF00BFBD4673
S3150800A6505DF8047B704780B500AF00F061FA0346E9
S3150800A660184680BD80B400AF034B044A9A6000BF09
S3150800A670BD465DF8047B704700ED00E000A00008C9
S3150800A68080B586B000AFFFF7EDFF00F0EFF900F0F8
S3150800A69051F800F0ADF8FFF733FE234800F011FC3F
S3150800A6A0224B4FF4A8721A60204B00229A601F4B67
S3150800A6B00022DA601D4B08221A6100237B6107E03D
S3150800A6C03A467B69134400221A707B6901337B6121
S3150800A6D07B69062BF4DD0023FB6000233B616423C2
S3150800A6E0BB60FFF717FEFFF7B6FFF860FA683B692D
S3150800A6F0D31ABA689A42F4D23B78AE2B04D83B7880
S3150800A7000133DBB23B7005E000233B707B780133F5
S3150800A710DBB27B703A46064B0449034800F015FC49
S3150800A720FB683B61DDE700BF2800002058000020D9
S3150800A7307000002080B5A6B000AF07F1700328228C
S3150800A7400021184602F0ACFC07F15C0300221A60EF
S3150800A7505A609A60DA601A613B1D58220021184631
S3150800A76002F09EFC02233B670123FB671023C7F810
S3150800A77080300223C7F888304FF40043C7F88C307E
S3150800A7804FF4E013C7F890300023C7F8943007F168
S3150800A7907003184601F054F80346002B01D000F068
S3150800A7A08BF80F23FB6502233B6600237B664FF479
S3150800A7B08063BB660023FB6607F15C03022118462B
S3150800A7C002F062F80346002B01D000F075F8022368
S3150800A7D07B6000233B613B1D184602F045FA0346A1
S3150800A7E0002B01D000F068F800BF9837BD4680BD41
S3150800A7F080B58AB000AF07F1140300221A605A60C8
S3150800A8009A60DA601A612B4B5B692A4A43F4002383
S3150800A8105361284B5B6903F400233B613B69254B75
S3150800A8205B69244A43F480035361224B5B6903F452
S3150800A8308003FB60FB681F4B5B691E4A43F40033C9
S3150800A84053611C4B5B6903F40033BB60BB68194B4F
S3150800A8505B69184A43F480235361164B5B6903F41A
S3150800A86080237B607B68002220214FF0904000F017
S3150800A870CFFF01237B610023BB610023FB6107F146
S3150800A880140319464FF0904000F038FE20237B61F0
S3150800A8900123BB610023FB6100233B6207F114031C
S3150800A8A019464FF0904000F029FE00BF2837BD46F4
S3150800A8B080BD00BF0010024080B400AF72B600BF72
S3150800A8C000BFFDE780B582B000AF0F4B9B690E4A0B
S3150800A8D043F0010393610C4B9B6903F001037B6012
S3150800A8E07B68094BDB69084A43F08053D361064B02
S3150800A8F0DB6903F080533B603B68072000F0CAFD24
S3150800A90000BF0837BD4680BD0010024080B58AB03A
S3150800A91000AF786007F1140300221A605A609A6043
S3150800A920DA601A617B681B68174A934228D1174B6D
S3150800A930DB69164A43F00073D361144BDB6903F0F5
S3150800A94000733B613B69114B5B69104A43F48023F2
S3150800A95053610E4B5B6903F48023FB60FB684FF47D
S3150800A96040737B610223BB610023FB6103233B62C7
S3150800A97009237B6207F114031946054800F0BEFD5A
S3150800A98000BF2837BD4680BD006400400010024065
S3150800A9900004004880B400AF00BFFDE780B400AFF4
S3150800A9A000BFFDE780B400AF00BFFDE780B400AF8D
S3150800A9B000BFFDE780B400AF00BFFDE780B400AF7D
S3150800A9C000BFBD465DF8047B704780B400AF00BF8A
S3150800A9D0BD465DF8047B704780B400AF00BFBD4636
S3150800A9E05DF8047B704780B500AF00F085F800BFBE
S3150800A9F080BD000080B400AF064BD3F88830054A06
S3150800AA0043F47003C2F8883000BFBD465DF8047B86
S3150800AA10704700BF00ED00E0DFF834D0FFF7EAFF2B
S3150800AA200C480D490D4A002302E0D458C45004339B
S3150800AA30C4188C42F9D30A4A0A4C002301E0136071
S3150800AA400432A242FBD302F033FBFFF719FEFEE7FE
S3150800AA5000000120000000200C00002074D100082E
S3150800AA600C00002078000020FEE7000080B500AF4B
S3150800AA70084B1B68074A43F010031360032000F0D5
S3150800AA8009FD002000F008F8FFF71CFF0023184610
S3150800AA9080BD00BF0020024080B582B000AF78605C
S3150800AAA0124B1A68124B1B7819464FF47A73B3FB8C
S3150800AAB0F1F3B2FBF3F3184600F013FD0346002B3F
S3150800AAC001D001230EE07B680F2B0AD80022796893
S3150800AAD04FF0FF3000F0E9FC064A7B68136000235C
S3150800AAE000E0012318460837BD4680BD0000002057
S3150800AAF0080000200400002080B400AF064B1B7835
S3150800AB001A46064B1B681344044A136000BFBD4629
S3150800AB105DF8047B704700BF080000207400002021
S3150800AB2080B400AF034B1B681846BD465DF8047B2E
S3150800AB30704700BF7400002080B584B000AF78600D
S3150800AB407B68002B01D10123EDE07B6893F8203068
S3150800AB50DBB2002B02D17868FFF7D8FE7B681B684A
S3150800AB601A687B681B6842F001021A60FFF7D8FF73
S3150800AB70F86012E0FFF7D4FF0246FB68D31A0A2BE7
S3150800AB800BD97B685B6A43F400327B685A627B6840
S3150800AB90052283F820200123C5E07B681B685B68D3
S3150800ABA003F00103002BE5D07B681B681A687B68F5
S3150800ABB01B6822F002021A60FFF7B2FFF86012E083
S3150800ABC0FFF7AEFF0246FB68D31A0A2B0BD97B6840
S3150800ABD05B6A43F400327B685A627B68052283F815
S3150800ABE0202001239FE07B681B685B6803F0020353
S3150800ABF0002BE5D17B681B7E012B08D17B681B687F
S3150800AC001A687B681B6842F080021A6007E07B6856
S3150800AC101B681A687B681B6822F080021A607B68CA
S3150800AC205B7E012B08D17B681B681A687B681B68EA
S3150800AC3042F040021A6007E07B681B681A687B6866
S3150800AC401B6822F040021A607B689B7E012B08D1A4
S3150800AC507B681B681A687B681B6842F020021A60CA
S3150800AC6007E07B681B681A687B681B6822F020026D
S3150800AC701A607B68DB7E012B08D17B681B681A6823
S3150800AC807B681B6822F010021A6007E07B681B6865
S3150800AC901A687B681B6842F010021A607B681B7F83
S3150800ACA0012B08D17B681B681A687B681B6842F011
S3150800ACB008021A6007E07B681B681A687B681B68CD
S3150800ACC022F008021A607B685B7F012B08D17B683B
S3150800ACD01B681A687B681B6842F004021A6007E062
S3150800ACE07B681B681A687B681B6822F004021A6076
S3150800ACF07B689A687B68DB681A437B681B691A431A
S3150800AD007B685B6942EA03017B685B685A1E7B685D
S3150800AD101B680A43DA617B6800225A627B68012253
S3150800AD2083F82020002318461037BD4680BD80B41E
S3150800AD3087B000AF786039607B681B687B617B6889
S3150800AD4093F82030FB74FB7C012B03D0FB7C022B91
S3150800AD5040F0AA807B69D3F8003243F001027B6990
S3150800AD60C3F800223B685B6903F01F03012202FA5D
S3150800AD7003F3FB607B69D3F81C22FB68DB431A40AC
S3150800AD807B69C3F81C223B68DB69002B23D17B69EE
S3150800AD90D3F80C22FB68DB431A407B69C3F80C2204
S3150800ADA03B68DB6819043B685B689BB23A68526982
S3150800ADB019437B69483243F832103B689B6819048B
S3150800ADC03B681B689AB23B685B690A4379694833F2
S3150800ADD0DB000B445A603B68DB69012B22D17B6997
S3150800ADE0D3F80C22FB681A437B69C3F80C223B682C
S3150800ADF01B6819043B685B689BB23A685269194339
S3150800AE007B69483243F832103B689B6819043B68F3
S3150800AE10DB689AB23B685B690A4379694833DB00A9
S3150800AE200B445A603B689B69002B09D17B69D3F8B0
S3150800AE300422FB68DB431A407B69C3F8042207E057
S3150800AE407B69D3F80422FB681A437B69C3F804229A
S3150800AE503B681B69002B09D17B69D3F81422FB6870
S3150800AE60DB431A407B69C3F8142207E07B69D3F8F1
S3150800AE701422FB681A437B69C3F814223B681B6AD1
S3150800AE80012B07D17B69D3F81C22FB681A437B691F
S3150800AE90C3F81C227B69D3F8003223F001027B69D0
S3150800AEA0C3F80022002306E07B685B6A43F480222D
S3150800AEB07B685A62012318461C37BD465DF8047B39
S3150800AEC0704780B584B000AF78607B6893F820300F
S3150800AED0DBB2012B2ED17B68022283F820207B6807
S3150800AEE01B681A687B681B6822F001021A60FFF764
S3150800AEF017FEF86012E0FFF713FE0246FB68D31A46
S3150800AF000A2B0BD97B685B6A43F400327B685A626A
S3150800AF107B68052283F82020012312E07B681B68E2
S3150800AF205B6803F00103002BE5D17B6800225A62B7
S3150800AF30002306E07B685B6A43F400227B685A625A
S3150800AF40012318461037BD4680BD80B489B000AFCE
S3150800AF50F860B9607A603B60FB6893F82030FB774D
S3150800AF60FB681B689B68BB61FB7F012B03D0FB7FDB
S3150800AF70022B40F0AD80BB6903F08063002B0AD139
S3150800AF80BB6903F00063002B05D1BB6903F080534E
S3150800AF90002B00F09580BB691B0E03F003037B6151
S3150800AFA001227B699A403B681A60BB689B68002B44
S3150800AFB00DD1BB681B685A05BB68DB68F968096868
S3150800AFC01A437B6918331B010B441A600FE0BB68F0
S3150800AFD05B68DA00BB689B681A43BB68DB68F9687C
S3150800AFE009681A437B6918331B010B441A60FB680E
S3150800AFF01968BB681A697B6918331B010B4404334B
S3150800B0001A60BB681B7D012B11D1FB681A687B6926
S3150800B01018331B01134404331B68FA68116843F498
S3150800B02080727B6918331B010B4404331A607B68F2
S3150800B03007331B781A067B6806331B781B041A43EA
S3150800B0407B6805331B781B0213437A68043212782F
S3150800B0501046FA68116843EA00027B691B010B4433
S3150800B06003F5C6731A607B6803331B781A067B6878
S3150800B07002331B781B041A437B6801331B781B02B7
S3150800B08013437A6812781046FA68116843EA000290
S3150800B0907B691B010B4403F5C4731A60FB681A68C5
S3150800B0A07B6918331B0113441B68FA68116843F05F
S3150800B0B001027B6918331B010B441A6000230EE05A
S3150800B0C0FB685B6A43F40012FB685A62012306E0D8
S3150800B0D0FB685B6A43F48022FB685A6201231846C0
S3150800B0E02437BD465DF8047B704780B487B000AF4F
S3150800B0F0F860B9607A603B60FB6893F82030FB75AE
S3150800B100FB7D012B03D0FB7D022B40F00381BB683E
S3150800B110002B0ED1FB681B68DB6803F00303002BCA
S3150800B12016D1FB685B6A43F40012FB685A62012376
S3150800B130F7E0FB681B681B6903F00303002B07D1C4
S3150800B140FB685B6A43F40012FB685A620123E8E075
S3150800B150FB681A68BB681B331B0113441B6803F0A2
S3150800B16004027B689A607B689B68002B0CD1FB689D
S3150800B1701A68BB681B331B0113441B685B0DC3F3BA
S3150800B1800A027B681A600BE0FB681A68BB681B3307
S3150800B1901B0113441B68DB0823F060427B685A6076
S3150800B1A0FB681A68BB681B331B0113441B6803F052
S3150800B1B002027B68DA60FB681A68BB681B331B01EE
S3150800B1C0134404331B6803F00803002B03D07B6881
S3150800B1D008221A610BE0FB681A68BB681B331B015F
S3150800B1E0134404331B6803F00F027B681A61FB687B
S3150800B1F01A68BB681B331B01134404331B681B0AFC
S3150800B200DAB27B689A61FB681A68BB681B331B0154
S3150800B210134404331B681B0C9AB27B685A61FB689B
S3150800B2201A68BB681B01134403F5DC731B68DAB2A2
S3150800B2303B681A70FB681A68BB681B01134403F560
S3150800B240DC731B681A0A3B680133D2B21A70FB68B2
S3150800B2501A68BB681B01134403F5DC731B681A0CD8
S3150800B2603B680233D2B21A70FB681A68BB681B01C6
S3150800B270134403F5DC731B681A0E3B680333D2B21A
S3150800B2801A70FB681A68BB681B01134403F5DE7362
S3150800B2901A683B680433D2B21A70FB681A68BB682E
S3150800B2A01B01134403F5DE731B681A0A3B68053352
S3150800B2B0D2B21A70FB681A68BB681B01134403F5FF
S3150800B2C0DE731B681A0C3B680633D2B21A70FB6829
S3150800B2D01A68BB681B01134403F5DE731B681A0E54
S3150800B2E03B680733D2B21A70BB68002B08D1FB68DB
S3150800B2F01B68DA68FB681B6842F02002DA6007E020
S3150800B300FB681B681A69FB681B6842F020021A6111
S3150800B310002306E0FB685B6A43F48022FB685A62F6
S3150800B320012318461C37BD465DF8047B70470000AC
S3150800B33080B485B000AF78607B6803F00703FB60D4
S3150800B3400C4BDB68BB60BA684FF6FF031340BB6063
S3150800B350FB681A02BB68134343F0BF6343F4003328
S3150800B360BB60044ABB68D36000BF1437BD465DF8AE
S3150800B370047B704700ED00E080B400AF044BDB6847
S3150800B3801B0A03F007031846BD465DF8047B7047A1
S3150800B39000ED00E080B483B000AF03463960FB716E
S3150800B3A097F90730002B0ADB3B68DAB20C4997F9A4
S3150800B3B007301201D2B20B4483F800230AE03B6837
S3150800B3C0DAB20849FB7903F00F03043B1201D2B243
S3150800B3D00B441A7600BF0C37BD465DF8047B7047F0
S3150800B3E000E100E000ED00E080B489B000AFF8604D
S3150800B3F0B9607A60FB6803F00703FB61FB69C3F178
S3150800B4000703042B28BF0423BB61FB690433062BFF
S3150800B41002D9FB69033B00E000237B614FF0FF3252
S3150800B420BB6902FA03F3DA43BB681A407B699A40A0
S3150800B4304FF0FF317B6901FA03F3D9437B680B4070
S3150800B440134318462437BD465DF8047B7047000051
S3150800B45080B582B000AF78607B68013BB3F1807F2E
S3150800B46001D301230FE00A4A7B68013B53600F2191
S3150800B4704FF0FF30FFF78EFF054B00229A60044B12
S3150800B48007221A60002318460837BD4680BD00BF4C
S3150800B49010E000E080B582B000AF78607868FFF70A
S3150800B4A047FF00BF0837BD4680BD80B586B000AFF0
S3150800B4B00346B9607A60FB7300237B61FFF75CFF84
S3150800B4C078617A68B9687869FFF78EFF024697F956
S3150800B4D00F3011461846FFF75DFF00BF1837BD4607
S3150800B4E080BD80B582B000AF78607868FFF7B0FF9E
S3150800B4F0034618460837BD4680BD000080B487B0AD
S3150800B50000AF7860396000237B6160E13B681A68A8
S3150800B51001217B6901FA03F31340FB60FB68002BEA
S3150800B52000F052813B685B6803F00303012B05D0EA
S3150800B5303B685B6803F00303022B30D17B689B688A
S3150800B5403B617B695B00032202FA03F3DB433A693A
S3150800B55013403B613B68DA687B695B0002FA03F3D8
S3150800B5603A6913433B617B683A699A607B685B6812
S3150800B5703B6101227B6902FA03F3DB433A69134014
S3150800B5803B613B685B681B0903F001027B6902FAB1
S3150800B59003F33A6913433B617B683A695A603B682F
S3150800B5A05B6803F00303032B17D07B68DB683B61FA
S3150800B5B07B695B00032202FA03F3DB433A69134013
S3150800B5C03B613B689A687B695B0002FA03F33A6958
S3150800B5D013433B617B683A69DA603B685B6803F052
S3150800B5E00303022B23D17B69DA087B68083253F8F8
S3150800B5F022303B617B6903F007039B000F2202FAA6
S3150800B60003F3DB433A6913403B613B681A697B697C
S3150800B61003F007039B0002FA03F33A6913433B61FD
S3150800B6207B69DA087B680832396943F822107B6837
S3150800B6301B683B617B695B00032202FA03F3DB4369
S3150800B6403A6913403B613B685B6803F003027B6918
S3150800B6505B0002FA03F33A6913433B617B683A6974
S3150800B6601A603B685B6803F44033002B00F0AC803B
S3150800B6705E4B9B695D4A43F0010393615B4B9B6993
S3150800B68003F00103BB60BB68594A7B699B08023318
S3150800B69052F823303B617B6903F003039B000F22BA
S3150800B6A002FA03F3DB433A6913403B617B68B3F163
S3150800B6B0904F25D07B684F4A93421FD07B684E4AED
S3150800B6C0934219D07B684D4A934213D07B684C4A03
S3150800B6D093420DD07B684B4A934207D07B684A4A0F
S3150800B6E0934201D106230CE007230AE0052308E06C
S3150800B6F0042306E0032304E0022302E0012300E01A
S3150800B70000237A6902F00302920093403A691343D0
S3150800B7103B6137497B699B0802333A6941F8232024
S3150800B7203A4B9B683B61FB68DB433A6913403B61D4
S3150800B7303B685B6803F48013002B03D03A69FB6807
S3150800B74013433B61314A3B699360304BDB683B618D
S3150800B750FB68DB433A6913403B613B685B6803F46B
S3150800B7600013002B03D03A69FB6813433B61274A51
S3150800B7703B69D360254B5B683B61FB68DB433A69F1
S3150800B78013403B613B685B6803F40033002B03D02E
S3150800B7903A69FB6813433B611C4A3B6953601B4B80
S3150800B7A01B683B61FB68DB433A6913403B613B68B6
S3150800B7B05B6803F48033002B03D03A69FB681343B4
S3150800B7C03B61124A3B6913607B6901337B613B68C5
S3150800B7D01A687B6922FA03F3002B7FF497AE00BF41
S3150800B7E000BF1C37BD465DF8047B70470010024059
S3150800B7F0000001400004004800080048000C00480A
S3150800B80000100048001400480018004800040140D1
S3150800B81080B483B000AF78600B467B8013467B709C
S3150800B8207B78002B03D07A887B689A6102E07A8855
S3150800B8307B689A6200BF0C37BD465DF8047B70478B
S3150800B84080B5ADF5027D00AF07F50273A3F5017368
S3150800B850186007F50273A3F501731B68002B02D164
S3150800B860012301F00AB807F50273A3F501731B68F3
S3150800B8701B6803F00103002B00F06181AE4B5B6887
S3150800B88003F00C03042B0CD0AB4B5B6803F00C03E2
S3150800B890082B57D1A84B5B6803F4C033B3F5803F38
S3150800B8A050D14FF40033C7F8F431D7F8F43193FA8E
S3150800B8B0A3F3C7F8F031D7F8F031B3FA83F3DBB264
S3150800B8C03F2B02D89C4B1B6815E04FF40033C7F892
S3150800B8D0EC31D7F8EC3193FAA3F3C7F8E8314FF413
S3150800B8E00033C7F8E431D7F8E43193FAA3F3C7F87D
S3150800B8F0E031914B5B6A4FF40032C7F8DC21D7F888
S3150800B900DC2192FAA2F2C7F8D821D7F8D821B2FAE0
S3150800B91082F2D2B242F02002D2B202F01F02012114
S3150800B92001FA02F21340002B00F0088107F50273B2
S3150800B930A3F501731B685B68002B40F0FF800123A9
S3150800B94000F09BBF07F50273A3F501731B685B68DC
S3150800B950B3F5803F06D1784B1B68774A43F48033AA
S3150800B960136036E007F50273A3F501731B685B687D
S3150800B970002B0CD1704B1B686F4A23F4803313607D
S3150800B9806D4B1B686C4A23F48023136021E007F58E
S3150800B9900273A3F501731B685B68B3F5A02F0CD17E
S3150800B9A0654B1B68644A43F480231360624B1B682B
S3150800B9B0614A43F4803313600BE05F4B1B685E4AB1
S3150800B9C023F4803313605C4B1B685B4A23F48023A3
S3150800B9D0136007F50273A3F501731B685B68002BF8
S3150800B9E054D0FFF79DF8C7F800020AE0FFF798F869
S3150800B9F00246D7F80032D31A642B02D9032300F083
S3150800BA003CBF4FF40033C7F8D431D7F8D43193FA92
S3150800BA10A3F3C7F8D031D7F8D031B3FA83F3DBB242
S3150800BA203F2B02D8444B1B6815E04FF40033C7F888
S3150800BA30CC31D7F8CC3193FAA3F3C7F8C8314FF411
S3150800BA400033C7F8C431D7F8C43193FAA3F3C7F85B
S3150800BA50C031394B5B6A4FF40032C7F8BC21D7F8BE
S3150800BA60BC2192FAA2F2C7F8B821D7F8B821B2FADF
S3150800BA7082F2D2B242F02002D2B202F01F020121B3
S3150800BA8001FA02F21340002BB0D058E0FFF748F84D
S3150800BA90C7F800020AE0FFF743F80246D7F8003273
S3150800BAA0D31A642B02D9032300F0E7BE4FF4003300
S3150800BAB0C7F8B431D7F8B43193FAA3F3C7F8B0315D
S3150800BAC0D7F8B031B3FA83F3DBB23F2B02D81A4B5F
S3150800BAD01B6815E04FF40033C7F8AC31D7F8AC3122
S3150800BAE093FAA3F3C7F8A8314FF40033C7F8A43183
S3150800BAF0D7F8A43193FAA3F3C7F8A0310E4B5B6AC3
S3150800BB004FF40032C7F89C21D7F89C2192FAA2F28A
S3150800BB10C7F89821D7F89821B2FA82F2D2B242F041
S3150800BB202002D2B202F01F02012101FA02F21340EA
S3150800BB30002BB0D103E000BF0010024000BF07F59C
S3150800BB400273A3F501731B681B6803F00203002B3D
S3150800BB5000F06D81CD4B5B6803F00C03002B0CD015
S3150800BB60CA4B5B6803F00C03082B6ED1C74B5B68A6
S3150800BB7003F4C033B3F5004F67D10223C7F89431F5
S3150800BB80D7F8943193FAA3F3C7F89031D7F89031E0
S3150800BB90B3FA83F3DBB23F2B02D8BC4B1B6813E026
S3150800BBA00223C7F88C31D7F88C3193FAA3F3C7F878
S3150800BBB088310223C7F88431D7F8843193FAA3F37E
S3150800BBC0C7F88031B14B5B6A0222C7F87C21D7F8E7
S3150800BBD07C2192FAA2F2C7F87821D7F87821B2FA2E
S3150800BBE082F2D2B242F02002D2B202F01F02012142
S3150800BBF001FA02F21340002B0AD007F50273A3F5E7
S3150800BC0001731B68DB68012B02D0012300F035BEE7
S3150800BC109E4B1B6823F0F80207F50273A3F5017320
S3150800BC201B681B69F821C7F87411D7F8741191FAC3
S3150800BC30A1F1C7F87011D7F87011B1FA81F1C9B23C
S3150800BC408B40924913430B60F1E007F50273A3F5A5
S3150800BC5001731B68DB68002B00F083800123C7F89B
S3150800BC606C31D7F86C3193FAA3F3C7F86831D7F873
S3150800BC706831B3FA83F3DBB203F1845303F5841313
S3150800BC809B001A4601231360FEF74AFFC7F8000215
S3150800BC900AE0FEF745FF0246D7F80032D31A022B10
S3150800BCA002D9032300F0E9BD0223C7F86431D7F8A7
S3150800BCB0643193FAA3F3C7F86031D7F86031B3FA61
S3150800BCC083F3DBB23F2B02D8704B1B6813E00223C9
S3150800BCD0C7F85C31D7F85C3193FAA3F3C7F8583143
S3150800BCE00223C7F85431D7F8543193FAA3F3C7F8A7
S3150800BCF05031664B5B6A0222C7F84C21D7F84C21B3
S3150800BD0092FAA2F2C7F84821D7F84821B2FA82F285
S3150800BD10D2B242F02002D2B202F01F02012101FA89
S3150800BD2002F21340002BB4D0584B1B6823F0F802DC
S3150800BD3007F50273A3F501731B681B69F821C7F899
S3150800BD404411D7F8441191FAA1F1C7F84011D7F870
S3150800BD504011B1FA81F1C9B28B404C4913430B60CB
S3150800BD6065E00123C7F83C31D7F83C3193FAA3F3D1
S3150800BD70C7F83831D7F83831B3FA83F3DBB203F1B1
S3150800BD80845303F584139B001A4600231360FEF7B9
S3150800BD90C7FEC7F800020AE0FEF7C2FE0246D7F859
S3150800BDA00032D31A022B02D9032300F066BD022300
S3150800BDB0C7F83431D7F8343193FAA3F3C7F83031DA
S3150800BDC0D7F83031B3FA83F3DBB23F2B02D82F4BC7
S3150800BDD01B6813E00223C7F82C31D7F82C3193FAE5
S3150800BDE0A3F3C7F828310223C7F82431D7F824313A
S3150800BDF093FAA3F3C7F82031244B5B6A0222C7F8EB
S3150800BE001C21D7F81C2192FAA2F2C7F81821D7F8F4
S3150800BE101821B2FA82F2D2B242F02002D2B202F06D
S3150800BE201F02012101FA02F21340002BB4D107F5D3
S3150800BE300273A3F501731B681B6803F00803002B44
S3150800BE4000F0198107F50273A3F501731B685B6996
S3150800BE50002B00F082800123C7F81431D7F814317B
S3150800BE6093FAA3F3C7F81031D7F81031B3FA83F36E
S3150800BE70DBB21A46064B13449B001A46012313608D
S3150800BE80FEF74EFEC7F800020FE000BF00100240A2
S3150800BE9020819010FEF744FE0246D7F80032D31AE6
S3150800BEA0022B02D9032300F0E8BC0223C7F80C31A1
S3150800BEB0D7F80C3193FAA3F207F50273A3F580734A
S3150800BEC01A6007F50273A3F5827302221A6007F552
S3150800BED00273A3F582731B6893FAA3F207F502733C
S3150800BEE0A3F584731A6007F50273A3F58673022215
S3150800BEF01A6007F50273A3F586731B6893FAA3F213
S3150800BF0007F50273A3F588731A60B04B5A6A07F5EA
S3150800BF100273A3F58A730221196007F50273A3F564
S3150800BF208A731B6893FAA3F107F50273A3F58C735A
S3150800BF30196007F50273A3F58C731B68B3FA83F3CC
S3150800BF40DBB243F06003DBB203F01F03012101FA01
S3150800BF5003F31340002B9DD08DE007F50273A3F57C
S3150800BF608E7301221A6007F50273A3F58E731B6898
S3150800BF7093FAA3F207F50273A3F590731A6007F50F
S3150800BF800273A3F590731B68B3FA83F3DBB21A4600
S3150800BF908F4B13449B001A4600231360FEF7C0FD1F
S3150800BFA0C7F800020AE0FEF7BBFD0246D7F80032E2
S3150800BFB0D31A022B02D9032300F05FBC07F50273DC
S3150800BFC0A3F5927302221A6007F50273A3F592731A
S3150800BFD01B6893FAA3F207F50273A3F594731A6024
S3150800BFE007F50273A3F5967302221A6007F5027322
S3150800BFF0A3F596731B6893FAA3F207F50273A3F5E4
S3150800C00098731A6007F50273A3F59A7302221A60E9
S3150800C01007F50273A3F59A731B6893FAA3F207F55B
S3150800C0200273A3F59C731A60684B5A6A07F5027384
S3150800C030A3F59E730221196007F50273A3F59E7393
S3150800C0401B6893FAA3F107F50273A3F5A0731960A9
S3150800C05007F50273A3F5A0731B68B3FA83F3DBB283
S3150800C06043F06003DBB203F01F03012101FA03F377
S3150800C0701340002B97D107F50273A3F501731B68CC
S3150800C0801B6803F00403002B00F09C81002387F84B
S3150800C09007324E4BDB6903F08053002B16D14B4B0E
S3150800C0A0DB694A4A43F08053D361484BDB6903F0A6
S3150800C0B0805207F50273A3F5FE731A6007F502733B
S3150800C0C0A3F5FE731B68012387F80732414B1B68EB
S3150800C0D003F48073002B1AD13E4B1B683D4A43F488
S3150800C0E080731360FEF71CFDC7F8000209E0FEF72F
S3150800C0F017FD0246D7F80032D31A642B01D9032359
S3150800C100BBE3344B1B6803F48073002BEFD007F5B1
S3150800C1100273A3F501731B689B68012B06D12B4B91
S3150800C1201B6A2A4A43F00103136235E007F50273D6
S3150800C130A3F501731B689B68002B0CD1234B1B6A64
S3150800C140224A23F001031362204B1B6A1F4A23F07D
S3150800C1500403136220E007F50273A3F501731B6855
S3150800C1609B68052B0CD1194B1B6A184A43F004032C
S3150800C1701362164B1B6A154A43F0010313620BE060
S3150800C180124B1B6A114A23F0010313620F4B1B6AF9
S3150800C1900E4A23F00403136207F50273A3F501732D
S3150800C1A01B689B68002B00F08580FEF7B9FCC7F872
S3150800C1B0000211E0FEF7B4FC0246D7F80032D31AA3
S3150800C1C041F28832934207D9032356E3001002400E
S3150800C1D0208190100070004007F50273A3F5A27342
S3150800C1E002221A6007F50273A3F5A2731B6893FA75
S3150800C1F0A3F207F50273A3F5A4731A6007F5027391
S3150800C200A3F5A67302221A6007F50273A3F5A673AF
S3150800C2101B6893FAA3F207F50273A3F5A8731A60CD
S3150800C22007F50273A3F5A8731B68B3FA83F3DBB2A9
S3150800C23023F05F03DBB2002B02D1984B1B6A13E095
S3150800C24007F50273A3F5AA7302221A6007F50273AB
S3150800C250A3F5AA731B6893FAA3F207F50273A3F56D
S3150800C260AC731A608D4B5B6A07F50272A2F5AE7263
S3150800C2700221116007F50272A2F5AE72126892FAEF
S3150800C280A2F107F50272A2F5B072116007F5027203
S3150800C290A2F5B0721268B2FA82F2D2B242F0400245
S3150800C2A0D2B202F01F02012101FA02F21340002B5A
S3150800C2B080D07DE0FEF734FCC7F800020BE0FEF7FD
S3150800C2C02FFC0246D7F80032D31A41F2883293423D
S3150800C2D001D90323D1E207F50273A3F5B27302224B
S3150800C2E01A6007F50273A3F5B2731B6893FAA3F2F3
S3150800C2F007F50273A3F5B4731A6007F50273A3F57D
S3150800C300B67302221A6007F50273A3F5B6731B68A3
S3150800C31093FAA3F207F50273A3F5B8731A6007F543
S3150800C3200273A3F5B8731B68B3FA83F3DBB223F081
S3150800C3305F03DBB2002B02D1584B1B6A13E007F5EB
S3150800C3400273A3F5BA7302221A6007F50273A3F5FE
S3150800C350BA731B6893FAA3F207F50273A3F5BC73C5
S3150800C3601A604E4B5B6A07F50272A2F5BE7202218D
S3150800C370116007F50272A2F5BE72126892FAA2F16E
S3150800C38007F50272A2F5C072116007F50272A2F5EE
S3150800C390C0721268B2FA82F2D2B242F04002D2B247
S3150800C3A002F01F02012101FA02F21340002B86D186
S3150800C3B097F80732012B05D1384BDB69374A23F04A
S3150800C3C08053D36107F50273A3F501731B689B6954
S3150800C3D0002B00F05182314B5B6803F00C03082BED
S3150800C3E000F00F8207F50273A3F501731B689B69BA
S3150800C3F0022B40F0658107F50273A3F5C2734FF06F
S3150800C40080721A6007F50273A3F5C2731B6893FA64
S3150800C410A3F207F50273A3F5C4731A6007F502734E
S3150800C420A3F5C4731B68B3FA83F3DBB203F1845331
S3150800C43003F584139B001A4600231360FEF770FB6E
S3150800C440C7F8000209E0FEF76BFB0246D7F8003290
S3150800C450D31A022B01D903230FE207F50273A3F5BA
S3150800C460C6734FF000721A6007F50273A3F5C67318
S3150800C4701B6893FAA3F207F50273A3F5C8731A604B
S3150800C48007F50273A3F5C8731B68B3FA83F3DBB227
S3150800C4903F2B05D8014B1B682AE000BF001002405D
S3150800C4A007F50273A3F5CA734FF000721A6007F511
S3150800C4B00273A3F5CA731B6893FAA3F207F502730E
S3150800C4C0A3F5CC731A6007F50273A3F5CE734FF084
S3150800C4D000721A6007F50273A3F5CE731B6893FA08
S3150800C4E0A3F207F50273A3F5D0731A60CA4B5B6A09
S3150800C4F007F50272A2F5D2724FF00071116007F5C6
S3150800C5000272A2F5D272126892FAA2F107F50272C5
S3150800C510A2F5D472116007F50272A2F5D4721268F8
S3150800C520B2FA82F2D2B242F02002D2B202F01F026E
S3150800C530012101FA02F21340002B84D1B64BDB6AC3
S3150800C54023F00F0207F50273A3F501731B685B6AF4
S3150800C550B1491343CB62B04B5B6823F4761207F5F7
S3150800C5600273A3F501731B68196A07F50273A3F52D
S3150800C57001731B68DB690B43A74913434B6007F537
S3150800C5800273A3F5D6734FF080721A6007F502732B
S3150800C590A3F5D6731B6893FAA3F207F50273A3F5FE
S3150800C5A0D8731A6007F50273A3F5D8731B68B3FA34
S3150800C5B083F3DBB203F1845303F584139B001A4615
S3150800C5C001231360FEF7ACFAC7F8000209E0FEF78C
S3150800C5D0A7FA0246D7F80032D31A022B01D9032349
S3150800C5E04BE107F50273A3F5DA734FF000721A6090
S3150800C5F007F50273A3F5DA731B6893FAA3F207F536
S3150800C6000273A3F5DC731A6007F50273A3F5DC73EE
S3150800C6101B68B3FA83F3DBB23F2B02D87E4B1B6849
S3150800C62027E007F50273A3F5DE734FF000721A6070
S3150800C63007F50273A3F5DE731B6893FAA3F207F5F1
S3150800C6400273A3F5E0731A6007F50273A3F5E273A4
S3150800C6504FF000721A6007F50273A3F5E2731B68C0
S3150800C66093FAA3F207F50273A3F5E4731A606A4B0B
S3150800C6705B6A07F50272A2F5E6724FF00071116067
S3150800C68007F50272A2F5E672126892FAA2F107F5A8
S3150800C6900272A2F5E872116007F50272A2F5E87255
S3150800C6A01268B2FA82F2D2B242F02002D2B202F094
S3150800C6B01F02012101FA02F21340002B87D0DBE0AA
S3150800C6C007F50273A3F5EA734FF080721A6007F54F
S3150800C6D00273A3F5EA731B6893FAA3F207F50273CC
S3150800C6E0A3F5EC731A6007F50273A3F5EC731B68E0
S3150800C6F0B3FA83F3DBB203F1845303F584139B0087
S3150800C7001A4600231360FEF70BFAC7F8000209E081
S3150800C710FEF706FA0246D7F80032D31A022B01D9D9
S3150800C7200323AAE007F50273A3F5EE734FF0007230
S3150800C7301A6007F50273A3F5EE731B6893FAA3F262
S3150800C74007F50273A3F5F0731A6007F50273A3F5EC
S3150800C750F0731B68B3FA83F3DBB23F2B02D82E4B78
S3150800C7601B6827E007F50273A3F5F2734FF0007212
S3150800C7701A6007F50273A3F5F2731B6893FAA3F21E
S3150800C78007F50273A3F5F4731A6007F50273A3F5A8
S3150800C790F6734FF000721A6007F50273A3F5F67385
S3150800C7A01B6893FAA3F207F50273A3F5F8731A60E8
S3150800C7B0194B5B6A07F50272A2F5FA724FF000711F
S3150800C7C0116007F50272A2F5FA72126892FAA2F1DE
S3150800C7D007F50272A2F5FC72116007F50272A2F55E
S3150800C7E0FC721268B2FA82F2D2B242F02002D2B2D7
S3150800C7F002F01F02012101FA02F21340002B87D131
S3150800C8003AE007F50273A3F501731B689B69012BD0
S3150800C81004D1012331E000BF00100240194B5B68C8
S3150800C820C7F8FC31174BDB6AC7F8F831D7F8FC3183
S3150800C83003F4C03207F50273A3F501731B68DB69BD
S3150800C8409A4217D1D7F8FC3103F4701207F5027330
S3150800C850A3F501731B681B6A9A420BD1D7F8F83106
S3150800C86003F00F0207F50273A3F501731B685B6AF1
S3150800C8709A4201D0012300E00023184607F5027703
S3150800C880BD4680BD0010024080B59EB000AF7860FE
S3150800C890396000237B677B68002B01D1012354E1B3
S3150800C8A0894B1B6803F007033A689A4210D9864BEE
S3150800C8B01B6823F0070284493B6813430B60824BCD
S3150800C8C01B6803F007033A689A4201D001233CE14A
S3150800C8D07B681B6803F00203002B08D07B4B5B6860
S3150800C8E023F0F0027B689B68784913434B607B68AA
S3150800C8F01B6803F00103002B00F0CD807B685B68A2
S3150800C900012B37D14FF40033FB66FB6E93FAA3F382
S3150800C9103B673B6FB3FA83F3DBB23F2B02D86B4B13
S3150800C9201B680FE04FF40033BB66BB6E93FAA3F3A4
S3150800C9307B664FF400333B663B6E93FAA3F3FB65C5
S3150800C940624B5B6A4FF40032BA65BA6D92FAA2F28C
S3150800C9507A657A6DB2FA82F2D2B242F02002D2B287
S3150800C96002F01F02012101FA02F21340002B71D1D5
S3150800C9700123EAE07B685B68022B37D14FF000732E
S3150800C9803B653B6D93FAA3F3FB64FB6CB3FA83F345
S3150800C990DBB23F2B02D84D4B1B680FE04FF00073FC
S3150800C9A0BB64BB6C93FAA3F37B644FF000733B64E0
S3150800C9B03B6C93FAA3F3FB63444B5B6A4FF000723C
S3150800C9C0BA63BA6B92FAA2F27A637A6BB2FA82F215
S3150800C9D0D2B242F02002D2B202F01F02012101FABD
S3150800C9E002F21340002B35D10123AEE002233B634C
S3150800C9F03B6B93FAA3F3FB62FB6AB3FA83F3DBB2EE
S3150800CA003F2B02D8314B1B680DE00223BB62BB6A81
S3150800CA1093FAA3F37B6202233B623B6A93FAA3F37E
S3150800CA20FB612A4B5B6A0222BA61BA6992FAA2F2E0
S3150800CA307A617A69B2FA82F2D2B242F02002D2B2AE
S3150800CA4002F01F02012101FA02F21340002B01D164
S3150800CA5001237AE01D4B5B6823F003027B685B6861
S3150800CA601A4913434B60FEF75BF878670AE0FEF74E
S3150800CA7057F802467B6FD31A41F28832934201D99E
S3150800CA80032362E0114B5B6803F00C027B685B686A
S3150800CA909B009A42EBD10C4B1B6803F007033A68DC
S3150800CAA09A4215D2084B1B6823F0070206493B68D1
S3150800CAB013430B60044B1B6803F007033A689A425A
S3150800CAC006D0012341E000BF0020024000100240CA
S3150800CAD07B681B6803F00403002B08D01D4B5B68BA
S3150800CAE023F4E0627B68DB681A4913434B607B6872
S3150800CAF01B6803F00803002B09D0164B5B6823F468
S3150800CB0060527B681B69DB00124913434B6000F0D7
S3150800CB1029F801460F4B5B6803F0F003F0223A61EF
S3150800CB203A6992FAA2F2FA60FA68B2FA82F2D2B2D4
S3150800CB30D340094AD35C21FA03F3084A1360084B29
S3150800CB401B681846FDF7A8FF002318467837BD4628
S3150800CB5080BD00BF0010024034D10008000000204C
S3150800CB600400002080B487B000AF0023FB600023D8
S3150800CB70BB6000237B6100237B6000233B611F4B66
S3150800CB805B68FB60FB6803F00C03042B02D0082BE0
S3150800CB9003D029E01A4B3B6129E0FB689B0C03F0A4
S3150800CBA00F03184AD35C7B60144BDB6A03F00F0350
S3150800CBB0154AD35CBB60FB6803F48033002B08D0AE
S3150800CBC00F4ABB68B2FBF3F27B6802FB03F37B6197
S3150800CBD007E00B4ABB68B2FBF3F27B6802FB03F380
S3150800CBE07B617B693B6102E0054B3B6100BF3B69AA
S3150800CBF018461C37BD465DF8047B70470010024096
S3150800CC0000127A004CD100085CD1000880B400AF4D
S3150800CC10034B1B681846BD465DF8047B704700BF8A
S3150800CC200000002080B582B000AFFFF7EFFF014695
S3150800CC300B4B5B6803F4E0634FF4E0627A607A6852
S3150800CC4092FAA2F23A603A68B2FA82F2D2B2D340C3
S3150800CC50044AD35C21FA03F318460837BD4680BD5B
S3150800CC600010024044D1000880B592B000AF786049
S3150800CC7000233B640023FB63002387F847307B6867
S3150800CC801B6803F48033002B00F0D2804D4BDB6920
S3150800CC9003F08053002B0ED14A4BDB69494A43F017
S3150800CCA08053D361474BDB6903F08053BB60BB6895
S3150800CCB0012387F84730444B1B6803F48073002B25
S3150800CCC018D1414B1B68404A43F480731360FDF743
S3150800CCD027FF386408E0FDF723FF02463B6CD31AAA
S3150800CCE0642B01D90323D4E1374B1B6803F4807303
S3150800CCF0002BF0D0334B1B6A03F44073FB63FB6BCA
S3150800CD00002B00F082807B685B6803F44073FA6B43
S3150800CD109A427AD02B4B1B6A23F44073FB634FF479
S3150800CD2080333B633B6B93FAA3F3FB62FB6AB3FA6C
S3150800CD3083F3DBB21A46254B13449B001A4601239C
S3150800CD4013604FF48033BB63BB6B93FAA3F37B6327
S3150800CD507B6BB3FA83F3DBB21A461C4B13449B0076
S3150800CD601A4600231360174AFB6B1362FB6B03F02A
S3150800CD700103002B49D0FDF7D3FE38640AE0FDF71E
S3150800CD80CFFE02463B6CD31A41F28832934201D950
S3150800CD9003237EE10223BB62BB6A93FAA3F37B6299
S3150800CDA002233B623B6A93FAA3F3FB61FB69B3FA7E
S3150800CDB083F3DBB223F05F03DBB2002B08D1014B10
S3150800CDC01B6A0DE0001002400070004000819010C0
S3150800CDD00223BB61BB6993FAA3F37B619A4B5B6A37
S3150800CDE002223A613A6992FAA2F2FA60FA68B2FA4B
S3150800CDF082F2D2B242F04002D2B202F01F02012100
S3150800CE0001FA02F21340002BB9D08F4B1B6A23F4A8
S3150800CE1040727B685B688C4913430B6297F847300E
S3150800CE20012B05D1884BDB69874A23F08053D361F0
S3150800CE307B681B6803F00103002B08D0824B1B6B31
S3150800CE4023F003027B689B687F4913430B637B6867
S3150800CE501B6803F00203002B08D07B4B1B6B23F4E3
S3150800CE6040327B68DB68784913430B637B681B6831
S3150800CE7003F00403002B08D0734B1B6B23F44022EA
S3150800CE807B681B69704913430B637B681B6803F057
S3150800CE902003002B08D06C4B1B6B23F010027B6819
S3150800CEA0DB69694913430B637B681B6803F400332A
S3150800CEB0002B08D0644B5B6823F480027B685B6DAB
S3150800CEC0614913434B607B681B6803F04003002BE2
S3150800CED008D05D4B1B6B23F020027B681B6A5A49FE
S3150800CEE013430B637B681B6803F48023002B08D06D
S3150800CEF0554B1B6B23F040027B685B6A5249134310
S3150800CF000B637B681B6803F00803002B08D04E4BA5
S3150800CF101B6B23F440127B685B694B4913430B6315
S3150800CF207B681B6803F01003002B08D0464B1B6B6D
S3150800CF3023F440027B689B69434913430B637B6870
S3150800CF401B6803F40073002B08D03F4B5B6823F47F
S3150800CF5000027B681B6B3C4913434B607B681B686C
S3150800CF6003F08003002B08D0374BDB6A23F4F872F2
S3150800CF707B689B6A34491343CB627B681B6803F45E
S3150800CF808073002B08D0304BDB6A23F478527B6819
S3150800CF90DB6A2D491343CB627B681B6803F4805315
S3150800CFA0002B08D0284B1B6B23F480727B685B6BC5
S3150800CFB0254913430B637B681B6803F40053002B56
S3150800CFC008D0214B1B6B23F400727B681B6C1E492F
S3150800CFD013430B637B681B6803F48013002B08D08C
S3150800CFE0194B1B6B23F080727B689B6B16491343A6
S3150800CFF00B637B681B6803F40013002B08D0124BE5
S3150800D0001B6B23F000727B68DB6B0F4913430B63C2
S3150800D0107B681B6803F48003002B08D00A4B1B6B44
S3150800D02023F480627B685B6C074913430B637B6858
S3150800D0301B6803F40003002B0CD0034B1B6B23F473
S3150800D04000627B6802E000BF001002409B6C134937
S3150800D05013430B637B681B6803F08073002B08D0AF
S3150800D0600E4B1B6B23F400527B68DB6C0B49134396
S3150800D0700B637B681B6803F00073002B08D0074B13
S3150800D0801B6B23F400427B681B6D044913430B6337
S3150800D090002318464837BD4680BD00BF0010024031
S3150800D0A002440346934200D1704703F8011BF9E78F
S3150800D0B070B50D4D0D4C641BA4100026A64209D16F
S3150800D0C00B4D0C4C00F018F8641BA4100026A64261
S3150800D0D005D170BD55F8043B98470136EEE755F87B
S3150800D0E0043B98470136F2E76CD100086CD100087A
S3150800D0F06CD1000870D10008F8B500BFF8BC08BCB0
S3150800D1009E467047F8B500BFF8BC08BC9E467047F7
S3150800D11005020602060307030803090309040A04AD
S3150800D1200B040C040C050D050E050F050F0610065D
S3150800D13010071008000000000000000001020304A8
S3150800D140060708090000000001020304020304059B
S3150800D150060708090A0B0C0D0E0F1010010203042E
S3110800D16005060708090A0B0C0D0E0F1037
S3090800D16CE5A2000822
S3090800D170C1A2000842
S3110800D17400127A00100000000100000004
S7050800AA192F
