S01E0000466162726963615F53544D3332463352455F426F6F742E73726563A3
S3150800000000000120D9040008B1040008B304000860
S31508000010B5040008B7040008B90400080000000089
S31508000020000000000000000000000000BB040008FB
S31508000030BD04000800000000BF040008C104000851
S3150800004029050008290500082905000829050008CA
S3150800005029050008290500082905000829050008BA
S3150800006029050008290500082905000829050008AA
S31508000070290500082905000829050008290500089A
S31508000080290500082905000829050008290500088A
S31508000090290500082905000829050008290500087A
S315080000A0290500082905000829050008290500086A
S315080000B0290500082905000829050008290500085A
S315080000C0290500082905000829050008290500084A
S315080000D0290500082905000829050008290500083A
S315080000E0290500082905000829050008290500082A
S315080000F0290500082905000829050008290500081A
S315080001002905000800000000000000002905000875
S3150800011029050008290500082905000829050008F9
S3150800012029050008290500082905000829050008E9
S315080001302905000829050008000000000000000045
S3150800014029050008290500082905000800000000FF
S315080001500000000000000000000000000000000091
S3150800016029050008290500082905000829050008A9
S315080001702905000829050008290500082905000899
S3150800018029050008290500080000000000000000F5
S309080001902905000827
S3150800019410B5054C237833B9044B13B10448AFF3AF
S315080001A400800123237010BD100000200000000009
S315080001B4E81B000808B5034B1BB103490348AFF312
S315080001C4008008BD0000000014000020E81B000899
S315080001D401F0ECBA01F0F9BA08B500F02FF80120DD
S315080001E408BD642000F002B800F006B8014B188078
S315080001F4704700BF3400002010B50D4C01F086FA94
S31508000204236898420ED30B4B18784FF0904220215E
S3150800021448B901201870916101F078FA064B1B88D9
S315080002240344236010BD002018709162F4E700BFF0
S31508000234300000202C000020340000204FF09043AA
S3150800024420229A6270470000054B5A69024382B01D
S315080002545A615B6903400193019B02B0704700BF72
S3150800026400100240284A136823F0070343F00203E8
S3150800027410B51360136803F00703022BFAD1234C55
S31508000284236843F48033236023689A03FCD52368E0
S3150800029443F400232360636823F4761343F4E813D2
S315080002A46360E36A23F00F03E362236843F0807311
S315080002B4236023689B01FCD5636823F0F00363601D
S315080002C4636823F4E06343F480636360636823F438
S315080002D460536360636823F0030343F002036360B7
S315080002E4636803F00C03082BFAD1094800F04CFFA5
S315080002F4002000F02BF908B172B6FEE7236B23F44D
S315080003044033236310BD00BF0020024000100240A2
S3150800031400A24A0480B500248AB000F03BF9FFF72E
S31508000324A1FF1822214604A88DF80F4001F02EFCDF
S315080003344FF40020FFF788FF4FF48000FFF784FF8F
S315080003444FF40030FFF780FF4FF48020FFF77CFF5F
S315080003544FF09043274820259D624269F02393FA7B
S31508000364A3F30221B3FA83F322F0F00201FA03F3AA
S3150800037413434361A0F1F8204FF40052C76892FA78
S31508000384A2F3B3FA83F303265B0006FA03F327EA18
S31508000394030392FAA2F7C360076892FAA2F3B3FAC0
S315080003A483F35B009E4027EA060792FAA2F6012623
S315080003B4076001A8CDE901248DF80E10ADF80C608C
S315080003C400F03CFD04A94FF09040CDE9046408967A
S315080003D400F0D8FD04A94FF09040CDE90456CDE9C4
S315080003E40644089400F0CEFDFFF7F2FEFFF7F2FE8E
S315080003F4FCE700BF000001400B4B9A6942F001027A
S3150800040482B09A619A6902F001020092009ADA6946
S3150800041442F08052DA61DB6903F080530193019B51
S31508000424072002B000F0C0BA0010024070B50446B6
S3150800043488B01422002103A801F0A8FB2268194BEE
S315080004449A422CD103F5D6331748DA6942F000727A
S31508000454DA61DA6902F000720192019A5A6942F481
S3150800046480225A615B6903F480230293029B022665
S315080004744FF480730325092403A9CDE90336CDE98E
S31508000484065400F00BFC4FF40073CDE90336064816
S315080004940794012303A9CDE9053500F0FFFB08B04D
S315080004A470BD00BF0064004000040048FEE7FEE794
S315080004B4FEE7FEE7FEE770477047704700F07CB832
S315080004C4034AD2F8883043F47003C2F88830704778
S315080004D400ED00E0DFF834D0FFF7F2FF0C480D49D1
S315080004E40D4A002302E0D458C4500433C4188C427D
S315080004F4F9D30A4A0A4C002301E013600432A242E3
S31508000504FBD301F04BFBFFF705FFFEE700000120D4
S315080005140000002010000020981C0008100000208D
S31508000524CC040020FEE7704710B5074B4FF0FF32A6
S3150800053400241A611C61DA60DC609A629C62FFF727
S31508000544F2FF204610BD00BF0010024038B50E4B1E
S315080005541A784FF47A73B3FBF2F30C4A054610681B
S31508000564B0FBF3F000F064FA044658B90F2D09D825
S31508000574024629464FF0FF3000F028FA044B20467D
S315080005841D6038BD0120FCE704000020000000209F
S3150800059408000020074A08B5136843F010031360DF
S315080005A4032000F001FA0020FFF7D0FFFFF724FF2D
S315080005B4002008BD00200240034A044B11681B783A
S315080005C40B441360704700BF380000200400002065
S315080005D438B5044600286ED090F820300BB9FFF7DA
S315080005E425FF2268136843F00103136001F096F8A7
S315080005F4054623685A68D10751D51A6822F00202BB
S315080006041A6001F08BF8054623685A68920754D491
S31508000614227E012A1A680CBF42F0800222F0800268
S315080006241A60627E012A1A680CBF42F0400222F060
S3150800063440021A60A27E012A1A680CBF42F0200200
S3150800064422F020021A60E27E012A1A680CBF22F000
S31508000654100242F010021A60227F012A1A680CBF9F
S3150800066442F0080222F008021A60627F012A1A6818
S315080006740CBF42F0040222F004021A60D4E90221F3
S315080006840A4321690A4361690A43616801390A43CD
S31508000694DA6100200123606284F820300CE001F05E
S315080006A43DF8401B0A28A4D9636A43F400336362FD
S315080006B4052384F82030012038BD01F02FF8401BAB
S315080006C40A28A1D9F0E770B590F82030013B012B30
S315080006D461D80368D3F8002242F00102C3F8002265
S315080006E44A69D3F81C5202F01F040120A04025EAE7
S315080006F40005C3F81C52CD69C44385BBD3F80C5214
S31508000704CE682540C3F80C528D8803EBC20245EA2D
S315080007140645C2F840528E680D8845EA0645C2F871
S3150800072444528A696ABBD3F804222240C3F80422D5
S315080007340A6952BBD3F814221440C3F814420A6A4D
S31508000744012A02BFD3F81C220243C3F81C22D3F899
S31508000754002222F00102C3F80022002070BD012DF8
S31508000764DFD1D3F80C520E680543C3F80C528D88B2
S3150800077403EBC20245EA0645C2F840528E688D89E3
S31508000784CBE7D3F804220243D0E7D3F81422024372
S31508000794C3F81422D3E7436A43F48023436201204F
S315080007A4DCE738B590F82030012B04461FD10268DF
S315080007B4022380F82030136823F00103136000F045
S315080007C4ADFF05462368586810F0010001D1606240
S315080007D438BD00F0A3FF401B0A28F3D9636A43F423
S315080007E400336362052384F820300120F0E7436A66
S315080007F443F400234362F8E7F0B590F82050046800
S31508000804013D012DA6683ED816F0E05F35D0C6F343
S315080008140160012585401D60D1E9025700F11803DE
S3150800082425BB0D681B0147EA4557E75004EB00133F
S315080008340E69C3F88461097D012908BFD3F88411B8
S315080008444FEA001504BF41F48071C3F884112C449F
S315080008545168C4F88C111268C4F88821D3F8802129
S3150800086442F00102C3F880210020F0BD4E683D43E2
S315080008741B0145EAC605E550D8E7436A43F4001365
S3150800088443620120F1E7436A43F48023F8E790F8CA
S315080008942030013B012B09D803689B6803EA81636E
S315080008A4B3EB816F14BF0120002070470020704706
S315080008B4F0B590F82040013C012C71D8066841B97E
S315080008C4F468A40707D1436A43F40013436201207A
S315080008D4F0BD3469F5E706EB01150C01D5F8B071DE
S315080008E407F004079760002F50D1D5F8B0717F0D33
S315080008F41760D5F8B07107F00207D760D5F8B47158
S315080009043F0756BFD5F8B471082707F00F071761D4
S31508000914D5F8B471D5F8B4512644C7F307272D0C76
S3150800092497615561D6F8B8211A7002682244D2F83C
S31508000934B821120A5A7002682244D2F8B821120C55
S315080009449A7002682244D2F8B821120EDA70026844
S315080009542244D2F8BC211A7102682244D2F8BC2176
S31508000964120A5A7102682244D2F8BC21120C9A71EE
S3150800097402682244D2F8BC21120EDA71036851B90E
S31508000984DA6842F02002DA600020A1E7D5F8B071EF
S31508000994FF085760ADE71A6942F020021A61F3E7C7
S315080009A4436A43F4802391E70749CA6822F4E0625C
S315080009B40302120403F4E063120C134343F0BF6307
S315080009C443F40033CB60704700ED00E0164B30B5B6
S315080009D4DC68C4F30224C4F10703251D042B28BFCD
S315080009E40423062D4FF0FF358CBF033C002405FA7B
S315080009F403F321EA0303A54022EA0502A3400028DB
S31508000A0443EA0203ACBF00F16040084A4FEA031305
S31508000A14B8BF00F00F00DBB2AABF00F5614013545B
S31508000A2480F8003330BD00BF00ED00E014ED00E0AF
S31508000A340138B0F1807F0BD24FF0E023054A5861A4
S31508000A44F02182F823100020072298611A61704762
S31508000A540120704700ED00E00B4AD36813F0100339
S31508000A6405D00A49CB6943F00203CB611023D26847
S31508000A74520706D50549CA6942F00102CA6143F01C
S31508000A840403014AD3607047002002404000002056
S31508000A94064B186910F0800007D0054A5A6002F11F
S31508000AA488325A601869C0F3C010704700200240A3
S31508000AB423016745034A136943F080031361002041
S31508000AC4704700BF0020024070B5054600F026FEB8
S31508000AD40F4C0646E368D9070FD4E3689A0644BF61
S31508000AE42023E360E368DB0603D4E06810F004001F
S31508000AF407D0FFF7B1FF012003E0681CEAD00DB95F
S31508000B04032070BD00F00AFE801BA842E2D9F7E76D
S31508000B14002002402DE9F84FDFF894A01F469AF802
S31508000B241830012B0546884691463FD001234CF2DE
S31508000B3450308AF81830FFF7C7FF90BB012D03D051
S31508000B44022D14BF042502250026DFF868B03346B3
S31508000B543401C4F12001A4F1200207FA01F129FAAB
S31508000B6404F4CAF81C300C4327FA02F21443DBF8DF
S31508000B741020A4B242F00102CBF810204CF25030F7
S31508000B8428F81640FFF7A0FFDBF8102022F0010230
S31508000B94CBF8102028B90136F2B295424FF000037B
S31508000BA4D6D800238AF81830BDE8F88F0220FBE768
S31508000BB44000002000200240064B0022DA61064B62
S31508000BC41A6942F004021A611A6942F040021A616B
S31508000BD4704700BF4000002000200240064B002258
S31508000BE4DA61064B1A6942F002021A6158611A69F7
S31508000BF442F040021A61704740000020002002407B
S31508000C042DE9F041DFF8908098F81830012B054655
S31508000C140F463DD0012488F818400368A3424CF2D5
S31508000C24503014D1FFF750FF28B10120002388F86B
S31508000C341830BDE8F0814CF25030FFF7BDFFFFF7DE
S31508000C4443FF144A136923F004031361EEE7FFF71D
S31508000C543BFF0028E9D14FF0FF333B6020466E681E
S31508000C640C4CD5E9013203EBC223B342DED9304634
S31508000C74FFF7B4FF4CF25030FFF726FF236923F041
S31508000C840203236108B13E60D0E706F50066E8E78B
S31508000C940220CEE700200240400000202DE9F74F4D
S31508000CA4DFF89491624C00230A6832FA03F502D1FC
S31508000CB403B0BDE8F08F012505FA03F818EA020225
S31508000CC400F0A8804E68032706F003054FEA430E92
S31508000CD407FA0EFC6F1E012F6FEA0C0C34D88768CE
S31508000CE407EA0C0ACF6807FA0EF747EA0A07876085
S31508000CF4476827EA0808C6F300179F4047EA080723
S31508000D044760C76807EA0C088F6807FA0EF747EAC8
S31508000D140807022DC76019D14FEAD30800EB8808E3
S31508000D2403F0070AD8F820704FEA8A0A4FF00F0B27
S31508000D340BFA0AFB27EA0B0B0F6907FA0AF747EAC5
S31508000D440B07C8F8207001E0032DDAD1076805FA05
S31508000D540EF507EA0C073D4316F4403F056059D0E3
S31508000D64D9F8185045F00105C9F81850D9F818509B
S31508000D7423F0030707F1804705F0010507F58037D7
S31508000D84019503F0030C019DBD684FEA8C0C4FF0E6
S31508000D940F0E0EFA0CFEB0F1904F25EA0E0E3BD05C
S31508000DA4244DA8423AD005F58065A84238D005F501
S31508000DB48065A84236D005F58065A84234D005F585
S31508000DC48065A84232D005F58065A84214BF072578
S31508000DD4062505FA0CF545EA0E05BD60A568D74350
S31508000DE416F4801F0CBF3D401543A560E56816F44C
S31508000DF4001F0CBF3D401543E560656816F4003FC7
S31508000E040CBF3D40154365602568F60354BF3D4055
S31508000E1415432560013347E70025DAE70125D8E7B6
S31508000E240225D6E70325D4E70425D2E70525D0E726
S31508000E3400040140000400480010024030B5014691
S31508000E44007AD1E90032002800F08580002B62D0B0
S31508000E54487A012843D002284AD000284CD100F108
S31508000E64804000F58230446824EA03044460046838
S31508000E741C43046000208C7A6CB1022C3ED0032CEF
S31508000E8445D0012C49D13E4CE56825EA0305E560C1
S31508000E94A5682B43A3600AB34B7A012B3FD0022BD8
S31508000EA446D0002B48D103F1804303F582335C6AAC
S31508000EB424EA02045C621C6A14431C628B7A6BB1D2
S31508000EC4022B3BD0032B42D0012B56D12C4BD96A8B
S31508000ED421EA0201D962996A0A439A6230BD28480E
S31508000EE4046824EA0304046044681C434460C1E7B4
S31508000EF4234804681C43F6E70120BCE7204CA56890
S31508000F0425EA0305A560E5682B43E360C3E71C4CA3
S31508000F14A5681D43F6E71846BDE70120BBE7184B4D
S31508000F241C6A24EA02041C625C6A14435C62C5E710
S31508000F34134B1C6A1443F6E70120BFE7104B996A62
S31508000F4421EA02019962D96A0A43DA62C6E70C4BB6
S31508000F54996A1143F6E70A490C6824EA03040C6003
S31508000F644C6824EA03034B600B6A23EA02030B6208
S31508000F744B6A23EA02034B62B0E70120AEE700BFDF
S31508000F84000401402DE9F04F02460D6895FAA5F4D0
S31508000F944FF0010CB4FA84F403266FEA050E35FA09
S31508000FA404F001D1BDE8F08F0CFA04F32B406FD09E
S31508000FB44868471E012F1ED8D2F8088093FAA3F76B
S31508000FC4B7FA87F793FAA3F97F0006FA07F728EA28
S31508000FD40708B9FA89F98F684FEA490907FA09F738
S31508000FE448EA0707976057680EEA0708CF686F4309
S31508000FF448EA07075760D2F80C8093FAA3F7B7FABA
S3150800100487F793FAA3F97F0006FA07F728EA070889
S31508001014B9FA89F90F694FEA490907FA09F748EA53
S3150800102407070228D7601FD193FAA3F7B7FA87F7F9
S31508001034072FD1F814902DDC176A93FAA3FABAFA93
S315080010448AFA93FAA3F84FF00F0BB8FA88F84FEA1E
S315080010548A0A0BFA0AFA4FEA880827EA0A0709FAF3
S3150800106408F847EA08071762D2F8008093FAA3F744
S31508001074B7FA87F793FAA3F3B3FA83F37F0006FA6A
S3150800108407F75B0028EA0708984048EA000010605A
S31508001094013484E7576A4FEA132898FAA8FABAFA81
S315080010A48AFA98FAA8F84FEA8A0BB8FA88F84FF039
S315080010B40F0A0AFA0BFA4FEA880827EA0A0709FA0E
S315080010C408F947EA09075762CEE70000034B044AC2
S315080010D45B68C3F30313D35CD8407047001002401F
S315080010E4081C0008034B044A5B68C3F30223D35C59
S315080010F4D840704700100240001C0008034B044AFD
S315080011045B68C3F3C223D35CD8407047001002401F
S31508001114001C00080A4B5A68D96A5B684FF47012B7
S3150800112492FAA2F2B2FA82F203F47013D3400233AB
S3150800113401F00F0101310348B0FBF1F05843704741
S315080011440010024000127A00044B5B6803F00C039B
S31508001154082B01D1FFF7DEBF014870470010024093
S3150800116400127A0010B50446FFF7EEFF2060FFF779
S31508001174ADFF60600146FFF7B5FFA0600846FFF7BC
S31508001184BDFFE06010BD0000014B1860704700BF4A
S315080011940000002072B6704762B67047F0B58BB08F
S315080011A46846FFF7DFFF294C029D002006464FF4E8
S315080011B4FA774FF47A73B5FBF3F522786378D11886
S315080011C401FB0771B5FBF1FC01FB1C5129B91FFA98
S315080011D48CF6711EB1F5806F0AD30130122804F11A
S315080011E40204EAD11A48AF2100F0A0FA00231A46ED
S315080011F4184C19492160013A013B00254FF08071CA
S3150800120412041B052046A161226163616660C4E974
S315080012140255A583FFF7DCF901234CF6E042CDE934
S31508001224002507930422089369460E234FF6E076B1
S315080012342046CDE902620993CDE905550495FFF7E1
S3150800124442FA2046FFF7ADFA0BB0F0BD631C00085E
S31508001254181C0008600000200064004010B588B01F
S3150800126440F2E17302930023CDE904330246069162
S315080012740B4801AB02A9FFF7BFFA70B900F046FAAA
S3150800128400F1320401990648FFF701FB28B100F082
S315080012942DFB00F03BFAA042F4D908B010BD00BFFC
S315080012A46000002010B588B003460C46094801AA18
S315080012B40021FFF7FDFA58B9019A40F267639A428A
S315080012C404D1039B13B9059B2370012008B010BDF4
S315080012D40020FBE760000020FFF75CBF10B500F0B4
S315080012E48FF9C8B1FEF778FFB0B100F093FAFFF7AB
S315080012F41BF900F0D3F900F085F9084B20F060409B
S3150800130420F07F00986000F07DF94468FFF744FFF9
S315080013142346BDE81040184710BD00BF00ED00E0A5
S31508001324F8B506460F4615460024AC4200D1F8BD6A
S315080013343B5D335500F0DAFA0134F6E72DE9F84354
S315080013440646FFF7A5FB002506F10409D6F8008032
S3150800135459F8057005EB080400F0C8FA21463A4620
S3150800136400230220FFF7D6FB044668B955F808306F
S31508001374BB4204D10435B5F5007FE7D10124FFF754
S3150800138499FB2046BDE8F8830024F8E738B5104BE6
S31508001394984204460D4608D00E4A914216D0FFF7E5
S315080013A4CDFF18B90024204638BD0B4CC5F30803F5
S315080013B4002BF7D123689D42F5D020464FF40072DE
S315080013C440F8045B2946FFF7ABFFECE71C46F1E758
S315080013D488000020003800088C0200202DE9F0411E
S315080013E41F46036821F4FF78013304460D46164662
S315080013F428F0010806D140F8048B4FF400724146E0
S31508001404FFF78EFF2368434505D020464146FFF77C
S31508001414BDFF0446E8B123680435ED1A254437446C
S3150800142400F064FA231DEB1AB3F5007F08D321688C
S31508001434204601F50071FFF7A9FF044648B1051DCA
S3150800144416F8013B05F8013BBE42E9D10120BDE887
S31508001454F0810020FBE70000034A4FF0FF331360D6
S31508001464024A1360704700BF8C02002088000020DF
S3150800147430B40E4D4C1E0B46291A8C4212D80C4C0D
S31508001484A0420FD3411E1944A9420BD820F4FF7178
S3150800149421F00101A142014630BC0CBF05480648AB
S315080014A4FFF79CBF002030BC704700BFFFFF03084E
S315080014B400380008880000208C02002030B51D4D35
S315080014C485B04A1E2B1A00249A42009420D81A4A38
S315080014D420F4FF6323F00703934219D3421E0A44F8
S315080014E4AA4215D80144C91AC1F3CF25C1F30A0182
S315080014F409B10135ADB20024CDE9014301230393B3
S31508001504FFF7C6FAA3B29D4205D80124FFF7D2FA1B
S31508001514204605B030BD00F0E9F9694601A8FFF791
S315080015246FFB013420B9029B03F500630293E9E7D4
S315080015340024EBE7FFFF03080038000807B50E4848
S315080015440368013316D0D0E901321344C2680B4943
S315080015541344026913444269134482691344C269F1
S3150800156413445B42019304230DEB0302FFF736FF92
S3150800157403B000BD0120FBE7880000208839000875
S315080015840D4AD2F80038D2F804185818D2F8083890
S315080015941844D2F80C381844D2F810381844D2F83B
S315080015A414381844D2F818381844D2F88839184424
S315080015B4B0FA80F04009704700300008094808B5B9
S315080015C40368013305D108480368013306D10120AD
S315080015D408BDFFF7B3FE0028F5D1F9E7BDE80840D2
S315080015E4FFF7ACBE880000208C0200200048704734
S315080015F400380008FFF730BFFFF73ABFFFF75EBFB2
S31508001604FFF7BEBFFFF7F2BF08B5FFF797FF18B19C
S31508001614BDE80840FFF7D2BF08BD0000194B1A49B8
S31508001624DA6942F0010282B0DA61DA6902F001028B
S315080016340192019A5A685B68C2F3022213F4E06FB6
S315080016448A5C1249096821FA02F14FF0804214BFF4
S3150800165402230123012010604B434FF6FF700C4907
S31508001664B3FBF1F3013BD0629362536943F0010380
S315080016745361084B526A00211960074B1A8002B05D
S31508001684704700BF00100240001C0008000000203C
S31508001694A086010094040020900400200B4B1A69CC
S315080016A442F001021A611A6922F001021A61DA6922
S315080016B422F00102DA614FF0E02300221A615A612E
S315080016C49A614FF00072C3F8042D70470010024067
S315080016D40C484FF0804302885B6A9B1A9BB2632BC3
S315080016E410B50DD9084C6421B3FBF1F321681944EC
S315080016F403EB830303EB830302EB8302216002807B
S3150800170410BD00BF900400209404002008B5FFF71C
S31508001714DFFF014B186808BD9404002008B5FFF7DD
S31508001724D7FF014B186808BD9404002008B500F0DB
S31508001734DDF8FCE710B500F09BF8012814D00B4C33
S315080017442378012B10D1FFF7E1FF094B094A1B68DF
S315080017541268134403F5FA73984205D300232370D9
S31508001764BDE81040FFF7BABD10BD00BFA0040020B5
S31508001774980400209C04002008B5044B1B78012B10
S3150800178403D1FFF7C3FF024B186008BDA00400206D
S315080017949C04002008B5044B01221A70FFF7ECFFDD
S315080017A4BDE80840FFF7C6BFA004002008B5FFF748
S315080017B493FD00F099F8FFF731FFFFF71BFF00F0E0
S315080017C417F8BDE80840FFF7E5BF08B500F08EF83E
S315080017D4FFF77EFF00F054F8BDE80840FFF7AABFFC
S315080017E408B5FFF793FF014B186008BDAC04002049
S315080017F408B5064B00221A70FFF7F2FF00F078F8D6
S31508001804FFF7CCFC024B02221A7008BDB004002074
S315080018140C000020024B00221A70FFF7E1BF00BF3C
S31508001824B004002008B5064B1B78022B02D1C9B2B6
S31508001834FFF714FD00F06CF8BDE80840FFF7D0BFC9
S315080018440C000020084B1B78042B04D8022B07D85D
S3150800185408D108207047052B14BF0820812070473B
S315080018643F207047812070470C000020FFF7EABF2D
S3150800187408B500F045F8003818BF012008BD000077
S3150800188413B515480DF10701FFF70CFD01280BD117
S31508001894124B02221A70124B1870FFF7A1FF9DF81B
S315080018A407100D4800F044F8FFF7E2FF012810D1AD
S315080018B40B4C2378012B0CD1FFF728FF094B1B6827
S315080018C4C01A41F28733984203D900232370FFF7DD
S315080018D487FF02B010BD00BFA10400200C00002041
S315080018E4B0040020AC040020FEF77BBCFEF77CBCE9
S315080018F4024B00221A619A609A817047B404002048
S31508001904024B187A003818BF01207047B404002027
S31508001914014B0022DA727047B4040020006870474D
S31508001924030A08704B70030C000E8B70C87070475E
S31508001934F8B50378914CFF2B05462ED10123238154
S315080019444378237541F2FF0323800023A370FFF72E
S3150800195479FFE070FFF78AFF2071FFF787FF40F2EF
S315080019640113000AE38008236071A381FFF742FE8E
S31508001974E37A012B01BF41F2FE0323800223A381EC
S31508001984B4F90C10002940F3F8800123E372BDE88A
S31508001994F8407A4889B2FFF745BF227A012A40F00F
S315080019A4EC80D22B1ED8C82B02D842F2FE0344E0A0
S315080019B4C93B092BF9D801A252F823F0E31A000807
S315080019C4AF190008AF190008F51A0008AF1900087E
S315080019D4AF190008751B00080D1B00085B1B0008DF
S315080019E4451B000803F10D02D2B20B2ADDD8F33BDE
S315080019F40B2BDAD801A252F823F000BF891A000883
S31508001A04611A0008311A0008791A0008AF19000883
S31508001A14AF190008AF190008BF1A0008AF19000863
S31508001A24CD1A0008D11A0008791B0008FFF70AFF27
S31508001A346A78904204D842F2FE23238002230BE0FC
S31508001A4421694F48FFF76CFCFF236A7823702369E2
S31508001A54134423616B780133A38189E7FFF7F2FE08
S31508001A646B788342E7D2281DFFF758FF20616A780E
S31508001A740146E6E7FF23281D2370FFF74FFF206181
S31508001A840123E9E7281DFF232370FFF747FF26698B
S31508001A9400258719BE4209D13A492846FFF740FF6F
S31508001AA401236370002363800823D5E716F8013BF6
S31508001AB41D44EDB2FFF71AFFECE7334B2361FF220F
S31508001AC40723C4E90023EFE7FE23B6E7FF232380B1
S31508001AD4637AA3700023E370A3800623BCE7266910
S31508001AE4FFF7B0FE6A1C411E3046FFF785FD10B9A4
S31508001AF443F2FE13A1E7FF232370FFF7A3FE23692E
S31508001B04013803442361BBE7FFF79CFE6B78013871
S31508001B14984290DDFF2323700123A381697821B9B4
S31508001B24FFF772FD0028E3D022E72069AA1CFFF715
S31508001B3463FD0028DCD06A7823691344236117E718
S31508001B44FF2300252380A570FFF77CFEA580E0709F
S31508001B54A571072380E70430FFF7E0FE23690146F1
S31508001B641846FFF74BFD0028C2D0FF23237087E7EA
S31508001B74FFF7B4FB00232381F7E7F8BDB40400207C
S31508001B84B5040020B8040020871C00080244034654
S31508001B94934200D1704703F8011BF9E770B50D4B62
S31508001BA40D4D5B1B9C100026A64209D100F01AF8BD
S31508001BB40A4D0B4B5B1B9C100026A64205D170BD33
S31508001BC455F8043B98470136EEE755F8043B984721
S31508001BD40136F2E7901C0008901C0008901C0008C7
S31508001BE4941C0008F8B500BFF8BC08BC9E467047AC
S31108001BF4F8B500BFF8BC08BC9E46704758
S31508001C0000000000010203040000000000000000BC
S31508001C100102030406070809433A2F5573657273D0
S31508001C202F6A6F7264612F446F63756D656E747386
S31508001C302F4769744875622F6F70656E626C742FD2
S31508001C405461726765742F536F757263652F4152BD
S31508001C504D434D345F53544D333246332F63616ED3
S31508001C602E63000502060206030703080309030993
S31508001C70040A040B040C040C050D050E050F050FCC
S31508001C80061006100710084F70656E424C54000087
S30908001C90B901000880
S30908001C9495010008A0
S31508001C9800127A000100000010000000060000008B
S705080004D915
