S01C0000466162726963615F53544D333246335F50726F672E7372656338
S3150800A0000000012005B5000841B400084DB4000859
S3150800A01055B400085DB4000865B4000800000000E7
S3150800A0200000000000000000000000006DB40008F9
S3150800A0307BB400080000000089B4000897B4000843
S3150800A04055B5000855B5000855B5000855B50008BA
S3150800A05055B5000855B5000855B5000855B50008AA
S3150800A06055B5000855B5000855B5000855B500089A
S3150800A07055B5000855B5000855B5000855B500088A
S3150800A08055B5000855B5000855B5000855B500087A
S3150800A090A5B4000855B5000855B5000855B500081B
S3150800A0A055B5000855B5000855B5000855B500085A
S3150800A0B055B5000855B5000855B50008B9B40008E7
S3150800A0C0CDB4000855B5000855B5000855B50008C3
S3150800A0D055B5000855B5000855B5000855B500082A
S3150800A0E055B5000855B5000855B5000855B500081A
S3150800A0F055B5000855B5000855B5000855B500080A
S3150800A10055B50008000000000000000055B500081D
S3150800A11055B5000855B5000855B5000855B50008E9
S3150800A12055B5000855B5000855B5000855B50008D9
S3150800A13055B5000855B500080000000000000000ED
S3150800A14055B5000855B5000855B5000800000000CB
S3150800A15000000000000000000000000000000000F1
S3150800A16055B5000855B5000855B5000855B5000899
S3150800A17055B5000855B5000855B5000855B5000889
S3150800A18055B5000855B5000800000000000000009D
S3090800A19055B50008AB
S3110800A20007814B9AD2040000BF2800001A
S3150800A2C010B5054C237833B9044B13B10448AFF3E2
S3150800A2D000800123237010BD9C00002000000000B0
S3150800A2E0A4FD000808B5034B1BB103490348AFF3A7
S3150800A2F0008008BD00000000A0000020A4FD0008A2
S3150800A30080B500AF00F09CF900F05EF900F020F887
S3150800A31000BF80BD80B500AF00F060F900F01EF800
S3150800A32000BF80BD80B400AFBFF34F8F00BF064BA0
S3150800A330DB6803F4E0620449044B1343CB60BFF3C4
S3150800A3404F8F00BF00BFFDE700ED00E00400FA05EF
S3150800A35080B500AF00F074F800BF80BD80B500AFCF
S3150800A36000F0F0F800BF80BD80B500AFFFF7DAFF58
S3150800A37080B586B000AFB9607A603B600346FB8162
S3150800A38005F08AFA03462C4AA2FB03239B093B6184
S3150800A3900023FB7548E0FA89FB7D284911F813303C
S3150800A3A01846FB7D25495B000B445B780344013363
S3150800A3B002FB03F31A463B69B3FBF2F101FB02F217
S3150800A3C09B1A002B2DD1FA89FB7D1C4911F81330F5
S3150800A3D01846FB7D19495B000B445B78034401333F
S3150800A3E002FB03F31A463B69B3FBF2F39AB2BB6866
S3150800A3F01A80BB681B88002B13D0BB681B88B3F573
S3150800A400806F0ED8FB7D0D4A12F813207B681A70F0
S3150800A410FB7D0A4A5B0013445A783B681A7001238D
S3150800A42006E0FB7D0133FB75FB7D112BB3D90023B9
S3150800A43018461837BD4680BDD34D6210C4FD0008C6
S3150800A44080B58EB000AF00237B85002387F82930BE
S3150800A450002387F8283040F267637B6307F12803F7
S3150800A46007F1290207F12A014FF4FA70FFF780FF76
S3150800A470304B314A1A602F4B00221A762D4B002298
S3150800A4805A762C4B00229A762A4B0122DA76294BE9
S3150800A49000221A77274B00225A77264B00229A6009
S3150800A4A0244B0022DA6097F82930013B1B04214A25
S3150800A4B0136197F82830013B1B051E4A53617B8DB3
S3150800A4C01A461C4B5A601B4801F0ACF87B6B002BF4
S3150800A4D005DB7B6B5B053B63184BFB620AE07B6B1A
S3150800A4E023F000437B637B6BDB0043F004033B6391
S3150800A4F0134BFB6200237B610023BB610123FB61D5
S3150800A50000233B6000237B600023BB600023FB60C5
S3150800A51000233B6101233B620E237B623B461946BF
S3150800A520044801F07AF9034801F041FA00BF3837C8
S3150800A530BD4680BDB8000020006400400400E0FF6E
S3150800A540FCFF1F0080B58CB000AF40F26763BB62AA
S3150800A550002387F82F303B1D07F10C02002119480C
S3150800A56001F039FB0346002B27D1BB6A002B0ADB17
S3150800A570FB68BA6A9A4214D17B69002B11D1012370
S3150800A58087F82F300DE0BB6A23F00043BB623B69B6
S3150800A590BA6A9A4205D17B69042B02D1012387F84E
S3150800A5A02F3097F82F30012B07D13B79FF2B04D199
S3150800A5B0FB69022B01D1FFF7D7FE00BF3037BD4636
S3150800A5C080BD00BFB800002080B500AF0022202162
S3150800A5D04FF0904002F074F900BF80BD80B582B09C
S3150800A5E000AF00F034F87860134B1B687A68D31A0A
S3150800A5F040F2DB5293421AD9104B1B78002B09D133
S3150800A6000E4B01221A70012220214FF0904002F0D1
S3150800A61057F908E0094B00221A70002220214FF052
S3150800A620904002F04DF9044A7B68136000E000BFD1
S3150800A6300837BD4680BD00BFE0000020E4000020CA
S3150800A64080B400AF00BFBD465DF8047B704780B597
S3150800A65000AF00F0DBFF0346184680BD80B586B024
S3150800A66000AF78600023FB7500233B6120E07B6820
S3150800A6703A69023253F822007B683A690C3233F899
S3150800A6801230194602F004F90346FB81FA897B6801
S3150800A69093F82130591E3B69CB1A02FA03F35AB2D2
S3150800A6A097F9173013435BB2FB753B6901333B617E
S3150800A6B03B69032BDBDDFB7D9BB218461837BD468D
S3150800A6C080BD80B584B000AF78600023FB737B68DB
S3150800A6D05A6A7B681B8D1946104602F0D9F803465C
S3150800A6E0FB73FB7B9BB218461037BD4680BD80B511
S3150800A6F082B000AF78600B467B807B6818687B6801
S3150800A7009B887A88D2B2194602F0DAF800BF083771
S3150800A710BD4680BD80B584B000AF78607B681A6896
S3150800A7207B689B881946104602F0B2F80346FB6020
S3150800A730FB689BB218461037BD4680BD80B582B00F
S3150800A74000AF7860034802F0D3FA00BF0837BD4669
S3150800A75080BD00BF6401002080B400AF184B1B7891
S3150800A760072B1CD0072B25DC052B02D0062B0BD07C
S3150800A77020E0144B93F82020134B1A70114B93F8D2
S3150800A7802A20114B5A7016E0104B93F820200E4BD6
S3150800A7901A700E4B93F82A200B4B5A700BE00C4B91
S3150800A7A093F82020084B1A70094B93F82A20064B79
S3150800A7B05A7000E000BF00BFBD465DF8047B7047D5
S3150800A7C0F400002000000020EC0000202C000020EF
S3150800A7D05800002080B582B000AF78600B46FB7049
S3150800A7E013463B80FB78002B0DD14FF000730122F6
S3150800A7F00A490B4802F0CAF9084B1A78094B1A702D
S3150800A800FFF7AAFF06E04FF0007302220649044844
S3150800A81002F00AF900BF0837BD4680BDE8000020EF
S3150800A82064010020F4000020EC00002080B582B00E
S3150800A83000AF7860034802F05BFA00BF0837BD46F0
S3150800A84080BD00BF6401002080B400AFBFF34F8F06
S3150800A85000BF064BDB6803F4E0620449044B13436C
S3150800A860CB60BFF34F8F00BF00BFFDE700ED00E0F0
S3150800A8700400FA0580B500AF0A4B10221A60094B8E
S3150800A88000229A60074B0022DA60064B08221A61FA
S3150800A890044B00221A750221034801F0BEFA00BFD4
S3150800A8A080BD00BFF8000020B800002080B582B047
S3150800A8B000AF03463A60FB800B467B71FB88084A6B
S3150800A8C013607B79064A1361064B3A6804490648C1
S3150800A8D001F0B1F8034618460837BD4680BD00BFEB
S3150800A8E0F800002010010020B800002080B582B0D2
S3150800A8F000AF7860134B144A0021786801F06BF9B1
S3150800A900114B1B6840F26762934209D10D4B1B78C5
S3150800A910FF2B05D10C4B1B69022B01D1FFF794FFC6
S3150800A920094B1B6840F26562934206D1054BDA79FA
S3150800A930064B1A70064B01221A7000BF0837BD462F
S3150800A94080BD00BF3001002014010020380100201E
S3150800A9503A01002080B586B000AF786039603B6860
S3150800A9601B78FB757B681B78BB75244B1B6893F8B3
S3150800A97020303B73214B1B6893F82A307B731F4B9F
S3150800A9805B6893F82030BB731C4B5B6893F82A30DE
S3150800A990FB731A4B9B6893F820303B74174B9B68E4
S3150800A9A093F82A307B7497F917301B015AB297F936
S3150800A9B0163003F00F035BB213435BB2DBB2BB7412
S3150800A9C00F4B1B78FB740E4B1B78FF2B03D10C4BDC
S3150800A9D000221A7005E00A4B1B780133DAB2084BDD
S3150800A9E01A7007F10C031A46082140F26160FFF756
S3150800A9F05DFF00BF1837BD4680BD00BF840000203C
S3150800AA003901002080B584B000AF78607B681B7878
S3150800AA10FB73FB7BBB7307F10E031A46012140F259
S3150800AA206260FFF743FF00BF1037BD4680BD0000D8
S3150800AA3080B400AF034B1B781846BD465DF8047B0F
S3150800AA40704700BF3A01002080B400AF034B0022D4
S3150800AA501A7000BFBD465DF8047B70473A010020B6
S3150800AA6080B582B000AF0E4B9B687B607B68DBB21B
S3150800AA703B707B681B0ADBB27B707B681B0CDBB206
S3150800AA80BB707B681B0EDBB2FB703B461A46042183
S3150800AA9040F26360FFF70AFF00BF0837BD4680BD76
S3150800AAA000A2000880B400AF034B044A9A6000BFB6
S3150800AAB0BD465DF8047B704700ED00E000A0000885
S3150800AAC080B584B000AFFFF7EDFF00F045FD00F05C
S3150800AAD035F800F00BF900F095F800F0C7F8FFF725
S3150800AAE00FFC134B10221A60114B00229A60104B70
S3150800AAF00022DA600E4B08221A610D4B00221A75E5
S3150800AB00FFF7B8FE0B4A3B1D92E8030083E80300F3
S3150800AB100023FB60084802F0EBF80346002B01D03F
S3150800AB2000F0B6F9FFF7F6FB00F0B8F900BFF9E751
S3150800AB30F8000020BCFD00086401002080B5A6B01E
S3150800AB4000AF07F1700328220021184605F0FEF829
S3150800AB5007F15C0300221A605A609A60DA601A618B
S3150800AB603B1D58220021184605F0F0F803233B67E1
S3150800AB704FF480337B670123FB671023C7F88030C7
S3150800AB800223C7F888304FF48033C7F88C304FF467
S3150800AB90E013C7F890300023C7F8943007F1700324
S3150800ABA0184603F06BFC0346002B01D000F070F941
S3150800ABB00F23FB6502233B6600237B664FF4806305
S3150800ABC0BB660023FB6607F15C030221184604F006
S3150800ABD079FC0346002B01D000F05AF920237B604C
S3150800ABE000233B623B1D184604F094FE0346002BE7
S3150800ABF001D000F04DF904F0D3FD00BF9837BD46EB
S3150800AC0080BD000080B500AF164B174A1A60154B79
S3150800AC1010225A60134B00229A60124B0022DA6007
S3150800AC20104B00221A610F4B00225A610D4B00226D
S3150800AC301A760C4B00225A760A4B00229A76094B52
S3150800AC400022DA76074B00221A77064B00225A773B
S3150800AC50044800F0E7FC0346002B01D000F018F981
S3150800AC6000BF80BD3C0100200064004080B500AFF5
S3150800AC701B4B1C4A1A601A4B1B4A5A60184B9222E5
S3150800AC809A60174B0122DA60154B00221A61144BA1
S3150800AC9000225A61124B00229A61114B0022DA6196
S3150800ACA00F4B00221A620E4801F022FE0346002BC3
S3150800ACB001D000F0EDF80021094803F047FB0346F0
S3150800ACC0002B01D000F0E4F80021054803F089FBC9
S3150800ACD00346002B01D000F0DBF800BF80BD00BFA3
S3150800ACE064010020005400400A02100080B58AB0B2
S3150800ACF000AF07F1140300221A605A609A60DA60FE
S3150800AD001A61604B5B695F4A43F4002353615D4BEC
S3150800AD105B6903F400233B613B695A4B5B69594AFB
S3150800AD2043F480035361574B5B6903F48003FB606C
S3150800AD30FB68544B5B69534A43F400335361514BE8
S3150800AD405B6903F40033BB60BB684E4B5B694D4AD5
S3150800AD5043F4802353614B4B5B6903F480237B6088
S3150800AD607B6801220821484801F0AAFD00226021DB
S3150800AD704FF0904001F0A4FD002241F21001434833
S3150800AD8001F09EFD4FF400537B614FF40413BB6141
S3150800AD900023FB6107F1140319463B4801F0EEFB5B
S3150800ADA008237B610123BB610123FB6100233B620E
S3150800ADB007F114031946344801F0E0FB01237B61CF
S3150800ADC00023BB610123FB6107F1140319464FF009
S3150800ADD0904001F0D3FB60237B610123BB61002314
S3150800ADE0FB6100233B6207F1140319464FF09040BC
S3150800ADF001F0C4FB4FF4F0637B610023BB610223BF
S3150800AE00FB6107F1140319464FF0904001F0B6FBB9
S3150800AE1090237B610023BB610223FB6107F11403C6
S3150800AE201946194801F0AAFB48F62E037B61002350
S3150800AE30BB610223FB6107F114031946134801F0AD
S3150800AE409DFB4FF4C8437B610023BB610123FB6173
S3150800AE5007F1140319460D4801F090FB41F210035F
S3150800AE607B610123BB610023FB6100233B6207F181
S3150800AE7014031946054801F081FB00BF2837BD4673
S3150800AE8080BD00BF001002400008004800040048CA
S3150800AE9080B400AF72B600BF00BFFDE790B589B0B9
S3150800AEA000AF934B1B78032B00F2D68101A252F810
S3150800AEB023F000BFC5AE0008F9AE0008F5AF0008DC
S3150800AEC025B2000800F0A2FB03468A4A1360894BA4
S3150800AED01A68894B1B68D31AB3F5FA7F40F2BE810C
S3150800AEE0834B01221A7082490020FFF733FD814BFC
S3150800AEF01B68824A1360B1E100F088FB03467D4A6D
S3150800AF0013600023FB610AE07D4AFB6952F823308F
S3150800AF1000211846FFF7EBFBFB690133FB61FB6970
S3150800AF20022BF1DD734B1A68744B1B68D31AB3F501
S3150800AF307A7F40F295810023FB7600237B6116E039
S3150800AF406F4A7B6952F823301846FFF787FB03469A
S3150800AF50FB80FB88002B07D00123FB7600F056FB0D
S3150800AF600346654A136005E07B6901337B617B69AB
S3150800AF70022BE5DD5E490020FFF7ECFCFB7E012B8A
S3150800AF8003D15B4B03221A706AE100233B6118E088
S3150800AF905B4A3B6952F8233001211846FFF7A7FBA5
S3150800AFA0574A3B6952F823301846FFF757FB0346C2
S3150800AFB0D9B2544A3B6913440A461A703B690133AD
S3150800AFC03B613B69022BE3DD494B02221A704E4B6B
S3150800AFD000221A7000F01AFB03464C4A136000F070
S3150800AFE015FB03464A4A136000F010FB0346494A1C
S3150800AFF0136035E100F00AFB03463E4A13603D4BF9
S3150800B0001A68424B1B68D31AB3F5FA7F30D3FFF799
S3150800B0100FFD0346002B26D0394B1B683E4A127893
S3150800B02002F0010292B211461846FFF760FB344B54
S3150800B0305A68394B1B785B08DBB203F001039BB2F5
S3150800B04019461046FFF753FB2D4B9A68324B1B786F
S3150800B0509B08DBB203F001039BB219461046FFF7C3
S3150800B06046FBFFF7F1FC00F0D1FA0346274A1360C6
S3150800B070204B1A68264B1B68D31AB3F5AF7F2AD321
S3150800B08000237B710023FB6016E01D4AFB6852F81B
S3150800B09023301846FFF73EFB034603F00102FB6820
S3150800B0A002FA03F35AB27B795BB213435BB2DBB2A3
S3150800B0B07B71FB680133FB60FB68022BE5DD7B1DBA
S3150800B0C00B491846FFF746FCFFF7CAFC00F09EFA44
S3150800B0D003460F4A1360074B1A680E4B1B68D31AB0
S3150800B0E0632B40F2BF80FFF7A3FC0023BB608DE013
S3150800B0F0B8010020BC010020C0010020C4010020C6
S3150800B10084000020D4010020D7010020C8010020B7
S3150800B110CC010020D001002038010020554ABB6828
S3150800B12013441B781C46544ABB6852F82330184609
S3150800B130FFF794FA0346E31A002BB8BF5B42D9B26D
S3150800B1403A46BB6813440A461A703A46BB68134423
S3150800B1501B78082B04D93A46BB68134401221A7097
S3150800B1603A46BB6813441B78022B1ED9434ABB6870
S3150800B17013441B780133D9B2404ABB6813440A46C4
S3150800B1801A703E4ABB6813441B78032B2DD901223B
S3150800B190BB6802FA03F35AB2394B1B785BB2134306
S3150800B1A05BB2DAB2364B1A701FE0334ABB6852F804
S3150800B1B023301846FFF752FA034619462E4ABB684B
S3150800B1C052F82330CAB283F820202B4ABB6852F8BB
S3150800B1D023301846FFF775FA03461946264ABB6810
S3150800B1E052F82330CAB283F82A20234ABB6852F899
S3150800B1F023301846FFF732FA0346D9B21D4ABB6810
S3150800B20013440A461A70BB680133BB60BB68022B3D
S3150800B21084DD1B48FFF7F6FB00F0F8F90346194AE8
S3150800B22013601FE000F0F2F90346174A1360164B45
S3150800B2301A68164B1B68D31AB3F5FA6F14D3144B56
S3150800B24000221A7000F0E2F90346104A136010490A
S3150800B2500020FFF77FFB07E000BF06E000BF04E021
S3150800B26000BF02E000BF00E000BF00BF2437BD46B4
S3150800B27090BD00BFD401002084000020D801002022
S3150800B280D7010020D0010020BC010020C001002009
S3150800B290B801002080B582B000AF0F4B9B690E4AFB
S3150800B2A043F0010393610C4B9B6903F001037B6038
S3150800B2B07B68094BDB69084A43F08053D361064B28
S3150800B2C0DB6903F080533B603B68072001F0CAF84E
S3150800B2D000BF0837BD4680BD0010024080B58AB061
S3150800B2E000AF786007F1140300221A605A609A606A
S3150800B2F0DA601A617B681B68244A934241D1244B61
S3150800B300DB69234A43F00073D361214BDB6903F001
S3150800B31000733B613B691E4B5B691D4A43F48023FE
S3150800B32053611B4B5B6903F48023FB60FB684FF496
S3150800B33080737B610223BB610023FB6103233B62AD
S3150800B34009237B6207F114031946124801F016F91E
S3150800B3504FF400737B610223BB610123FB61032366
S3150800B3603B6209237B6207F114031946094801F079
S3150800B37005F900220021142001F07FF8142001F0BD
S3150800B38098F800BF2837BD4680BD00BF006400405E
S3150800B390001002400004004880B58AB000AF78600B
S3150800B3A007F1140300221A605A609A60DA601A617B
S3150800B3B07B681B681F4A934237D11F4B5B691E4A3D
S3150800B3C043F4802353611C4B5B6903F480233B6180
S3150800B3D03B69C0237B611223BB610123FB61032305
S3150800B3E03B6204237B6207F114031946134801F0F4
S3150800B3F0C5F8114BDB69104A43F40013D3610E4BB1
S3150800B400DB6903F40013FB60FB68002200211F20A0
S3150800B41001F033F81F2001F04CF80022002120200B
S3150800B42001F02BF8202001F044F800BF2837BD466C
S3150800B43080BD00BF005400400010024000040048D0
S3150800B44080B500AF04F04AFA00BFFDE780B400AF4C
S3150800B45000BFFDE780B400AF00BFFDE780B400AFD2
S3150800B46000BFFDE780B400AF00BFFDE780B400AFC2
S3150800B47000BFBD465DF8047B704780B400AF00BFCF
S3150800B480BD465DF8047B704780B400AF00BFBD467B
S3150800B4905DF8047B704780B500AF00F0A3F800BFE5
S3150800B4A080BD000080B500AF024800F0DCFC00BF9C
S3150800B4B080BD00BFB800002080B500AF024801F08B
S3150800B4C037FC00BF80BD00BF6401002080B500AF17
S3150800B4D0024801F047FC00BF80BD00BF64010020A0
S3150800B4E080B400AF064BD3F88830054A43F470039E
S3150800B4F0C2F8883000BFBD465DF8047B704700BFC0
S3150800B50000ED00E0DFF834D0FFF7EAFF0C480D49FC
S3150800B5100D4A002302E0D458C4500433C4188C42A0
S3150800B520F9D30A4A0A4C002301E013600432A24206
S3150800B530FBD304F013FCFFF7C3FAFEE70000012073
S3150800B540000000209C00002028FE00089C00002027
S3150800B550E0010020FEE7000080B500AF084B1B683D
S3150800B560074A43F010031360032000F07BFF002016
S3150800B57000F008F8FFF78EFE0023184680BD00BFCE
S3150800B5800020024080B582B000AF7860124B1A687E
S3150800B590124B1B7819464FF47A73B3FBF1F3B2FBDF
S3150800B5A0F3F3184600F093FF0346002B01D001235E
S3150800B5B00EE07B680F2B0AD8002279684FF0FF301F
S3150800B5C000F05BFF064A7B681360002300E0012356
S3150800B5D018460837BD4680BD900000209800002018
S3150800B5E09400002080B400AF064B1B781A46064B21
S3150800B5F01B681344044A136000BFBD465DF8047B0C
S3150800B600704700BF98000020DC01002080B400AF1E
S3150800B610034B1B681846BD465DF8047B704700BFA0
S3150800B620DC01002080B584B000AF78607B68002B11
S3150800B63001D10123EDE07B6893F82030DBB2002BC3
S3150800B64002D17868FFF74AFE7B681B681A687B6830
S3150800B6501B6842F001021A60FFF7D8FFF86012E093
S3150800B660FFF7D4FF0246FB68D31A0A2B0BD97B686F
S3150800B6705B6A43F400327B685A627B68052283F86A
S3150800B68020200123C5E07B681B685B6803F0010383
S3150800B690002BE5D07B681B681A687B681B6822F05C
S3150800B6A002021A60FFF7B2FFF86012E0FFF7AEFF7A
S3150800B6B00246FB68D31A0A2B0BD97B685B6A43F4EC
S3150800B6C000327B685A627B68052283F820200123B2
S3150800B6D09FE07B681B685B6803F00203002BE5D1DB
S3150800B6E07B681B7E012B08D17B681B681A687B6800
S3150800B6F01B6842F080021A6007E07B681B681A68BC
S3150800B7007B681B6822F080021A607B685B7E012BCF
S3150800B71008D17B681B681A687B681B6842F0400280
S3150800B7201A6007E07B681B681A687B681B6822F04A
S3150800B73040021A607B689B7E012B08D17B681B68D8
S3150800B7401A687B681B6842F020021A6007E07B686B
S3150800B7501B681A687B681B6822F020021A607B68DF
S3150800B760DB7E012B08D17B681B681A687B681B681F
S3150800B77022F010021A6007E07B681B681A687B686B
S3150800B7801B6842F010021A607B681B7F012B08D1E8
S3150800B7907B681B681A687B681B6842F008021A6097
S3150800B7A007E07B681B681A687B681B6822F008023A
S3150800B7B01A607B685B7F012B08D17B681B681A6857
S3150800B7C07B681B6842F004021A6007E07B681B6806
S3150800B7D01A687B681B6822F004021A607B689A68FC
S3150800B7E07B68DB681A437B681B691A437B685B695D
S3150800B7F042EA03017B685B685A1E7B681B680A433A
S3150800B800DA617B6800225A627B68012283F820206D
S3150800B810002318461037BD4680BD80B487B000AFF8
S3150800B820786039607B681B687B617B6893F8203099
S3150800B830FB74FB7C012B03D0FB7C022B40F0AA8017
S3150800B8407B69D3F8003243F001027B69C3F8002212
S3150800B8503B685B6903F01F03012202FA03F3FB60EE
S3150800B8607B69D3F81C22FB68DB431A407B69C3F863
S3150800B8701C223B68DB69002B23D17B69D3F80C2299
S3150800B880FB68DB431A407B69C3F80C223B68DB681C
S3150800B89019043B685B689BB23A68526919437B692D
S3150800B8A0483243F832103B689B6819043B681B68AA
S3150800B8B09AB23B685B690A4379694833DB000B44F3
S3150800B8C05A603B68DB69012B22D17B69D3F80C22CD
S3150800B8D0FB681A437B69C3F80C223B681B6819048A
S3150800B8E03B685B689BB23A68526919437B69483280
S3150800B8F043F832103B689B6819043B68DB689AB2C8
S3150800B9003B685B690A4379694833DB000B445A6034
S3150800B9103B689B69002B09D17B69D3F80422FB6835
S3150800B920DB431A407B69C3F8042207E07B69D3F836
S3150800B9300422FB681A437B69C3F804223B681B6927
S3150800B940002B09D17B69D3F81422FB68DB431A4024
S3150800B9507B69C3F8142207E07B69D3F81422FB68D5
S3150800B9601A437B69C3F814223B681B6A012B07D16B
S3150800B9707B69D3F81C22FB681A437B69C3F81C222F
S3150800B9807B69D3F8003223F001027B69C3F80022F1
S3150800B990002306E07B685B6A43F480227B685A6270
S3150800B9A0012318461C37BD465DF8047B704780B5F1
S3150800B9B084B000AF78607B6893F82030DBB2012B47
S3150800B9C02ED17B68022283F820207B681B681A68C0
S3150800B9D07B681B6822F001021A60FFF717FEF86001
S3150800B9E012E0FFF713FE0246FB68D31A0A2B0BD99F
S3150800B9F07B685B6A43F400327B685A627B6805227F
S3150800BA0083F82020012312E07B681B685B6803F03B
S3150800BA100103002BE5D17B6800225A62002306E069
S3150800BA207B685B6A43F400227B685A6201231846E6
S3150800BA301037BD4680BD80B489B000AFF860B960E4
S3150800BA407A603B60FB6893F82030FB77FB681B68DD
S3150800BA509B68BB61FB7F012B03D0FB7F022B40F069
S3150800BA60AD80BB6903F08063002B0AD1BB6903F084
S3150800BA700063002B05D1BB6903F08053002B00F04F
S3150800BA809580BB691B0E03F003037B6101227B696A
S3150800BA909A403B681A60BB689B68002B0DD1BB684F
S3150800BAA01B685A05BB68DB68F96809681A437B692D
S3150800BAB018331B010B441A600FE0BB685B68DA0099
S3150800BAC0BB689B681A43BB68DB68F96809681A4350
S3150800BAD07B6918331B010B441A60FB681968BB683D
S3150800BAE01A697B6918331B010B4404331A60BB6857
S3150800BAF01B7D012B11D1FB681A687B6918331B0162
S3150800BB00134404331B68FA68116843F480727B692E
S3150800BB1018331B010B4404331A607B6807331B7800
S3150800BB201A067B6806331B781B041A437B680533A1
S3150800BB301B781B0213437A68043212781046FA6897
S3150800BB40116843EA00027B691B010B4403F5C673BF
S3150800BB501A607B6803331B781A067B6802331B78E6
S3150800BB601B041A437B6801331B781B0213437A684C
S3150800BB7012781046FA68116843EA00027B691B01CD
S3150800BB800B4403F5C4731A60FB681A687B6918339B
S3150800BB901B0113441B68FA68116843F001027B69AC
S3150800BBA018331B010B441A6000230EE0FB685B6A1E
S3150800BBB043F40012FB685A62012306E0FB685B6ADD
S3150800BBC043F48022FB685A62012318462437BD468F
S3150800BBD05DF8047B704780B487B000AFF860B96041
S3150800BBE07A603B60FB6893F82030FB75FB7D012B80
S3150800BBF003D0FB7D022B40F00381BB68002B0ED1DE
S3150800BC00FB681B68DB6803F00303002B16D1FB688F
S3150800BC105B6A43F40012FB685A620123F7E0FB688B
S3150800BC201B681B6903F00303002B07D1FB685B6ADB
S3150800BC3043F40012FB685A620123E8E0FB681A68BD
S3150800BC40BB681B331B0113441B6803F004027B68A3
S3150800BC509A607B689B68002B0CD1FB681A68BB68E6
S3150800BC601B331B0113441B685B0DC3F30A027B6875
S3150800BC701A600BE0FB681A68BB681B331B01134488
S3150800BC801B68DB0823F060427B685A60FB681A6809
S3150800BC90BB681B331B0113441B6803F002027B6855
S3150800BCA0DA60FB681A68BB681B331B01134404334C
S3150800BCB01B6803F00803002B03D07B6808221A616F
S3150800BCC00BE0FB681A68BB681B331B01134404337B
S3150800BCD01B6803F00F027B681A61FB681A68BB6869
S3150800BCE01B331B01134404331B681B0ADAB27B6837
S3150800BCF09A61FB681A68BB681B331B01134404333B
S3150800BD001B681B0C9AB27B685A61FB681A68BB6889
S3150800BD101B01134403F5DC731B68DAB23B681A701F
S3150800BD20FB681A68BB681B01134403F5DC731B68C0
S3150800BD301A0A3B680133D2B21A70FB681A68BB68E4
S3150800BD401B01134403F5DC731B681A0C3B680233AA
S3150800BD50D2B21A70FB681A68BB681B01134403F554
S3150800BD60DC731B681A0E3B680333D2B21A70FB6881
S3150800BD701A68BB681B01134403F5DE731A683B682F
S3150800BD800433D2B21A70FB681A68BB681B011344E5
S3150800BD9003F5DE731B681A0A3B680533D2B21A70BC
S3150800BDA0FB681A68BB681B01134403F5DE731B683E
S3150800BDB01A0C3B680633D2B21A70FB681A68BB685D
S3150800BDC01B01134403F5DE731B681A0E3B68073321
S3150800BDD0D2B21A70BB68002B08D1FB681B68DA68F8
S3150800BDE0FB681B6842F02002DA6007E0FB681B6804
S3150800BDF01A69FB681B6842F020021A61002306E0F4
S3150800BE00FB685B6A43F48022FB685A620123184682
S3150800BE101C37BD465DF8047B704780B485B000AF1B
S3150800BE20786039607B6893F82030FB73FB7B012BC5
S3150800BE3002D0FB7B022B09D17B681B6859697B689A
S3150800BE401B683A680A435A61002306E07B685B6A06
S3150800BE5043F480227B685A62012318461437BD468C
S3150800BE605DF8047B704780B58AB000AF7860002320
S3150800BE707B627B681B685B693B627B681B685B68E7
S3150800BE80FB617B681B689B68BB617B681B68DB681A
S3150800BE907B617B681B681B693B617B681B689B69C8
S3150800BEA0FB603B6A03F00103002B7CD0BB6903F0FF
S3150800BEB00103002B23D07B681B6801229A60BB69AB
S3150800BEC003F00203002B03D0786800F083F916E02C
S3150800BED0BB6903F00403002B04D07B6A43F40063B8
S3150800BEE07B620CE0BB6903F00803002B04D07B6A75
S3150800BEF043F480537B6202E0786800F089F9BB69F5
S3150800BF0003F48073002B24D07B681B684FF480727F
S3150800BF109A60BB6903F40073002B03D0786800F0BD
S3150800BF2063F916E0BB6903F48063002B04D07B6ACF
S3150800BF3043F400537B620CE0BB6903F40063002BF7
S3150800BF4004D07B6A43F480437B6202E0786800F0A1
S3150800BF5069F9BB6903F48033002B24D07B681B681E
S3150800BF604FF480329A60BB6903F40033002B03D088
S3150800BF70786800F043F916E0BB6903F48023002BC8
S3150800BF8004D07B6A43F400437B620CE0BB6903F48C
S3150800BF900023002B04D07B6A43F480337B6202E0E3
S3150800BFA0786800F049F93B6A03F00803002B0CD0C7
S3150800BFB07B6903F01003002B07D07B6A43F40073F8
S3150800BFC07B627B681B681022DA603B6A03F0040315
S3150800BFD0002B0BD07B6903F00803002B06D07B6887
S3150800BFE01B680822DA60786800F030F93B6A03F0CB
S3150800BFF00203002B09D07B681B68DB6803F0030388
S3150800C000002B02D07868FEF771FC3B6A03F0400308
S3150800C010002B0CD03B6903F01003002B07D07B6A7A
S3150800C02043F480637B627B681B6810221A613B6A53
S3150800C03003F02003002B0BD03B6903F00803002B09
S3150800C04006D07B681B6808221A61786800F012F926
S3150800C0503B6A03F01003002B09D07B681B681B6939
S3150800C06003F00303002B02D0786800F0F9F83B6A66
S3150800C07003F40033002B0BD0FB6903F01003002BED
S3150800C08006D07B681B6810225A60786800F0FCF8B6
S3150800C0903B6A03F48033002B0BD0FB6903F00803DB
S3150800C0A0002B06D07B681B6808225A60786800F067
S3150800C0B0F5F83B6A03F40043002B7BD0FB6903F0D9
S3150800C0C00403002B72D03B6A03F48073002B08D05C
S3150800C0D0FB6803F00103002B03D07B6A43F00103DE
S3150800C0E07B623B6A03F40073002B08D0FB6803F0FD
S3150800C0F00203002B03D07B6A43F002037B623B6A90
S3150800C10003F48063002B08D0FB6803F00403002BBC
S3150800C11003D07B6A43F004037B623B6A03F4006343
S3150800C120002B43D0FB6803F07003002B3ED0FB685E
S3150800C13003F07003602B2BD0602B2ED8502B22D007
S3150800C140502B2AD8402B19D0402B26D8302B10D06C
S3150800C150302B22D8102B02D0202B05D01DE07B6A6D
S3150800C16043F008037B6219E07B6A43F010037B62A5
S3150800C17014E07B6A43F020037B620FE07B6A43F09E
S3150800C18040037B620AE07B6A43F080037B6205E03A
S3150800C1907B6A43F480737B6200E000BF7B681B68A0
S3150800C1A09A697B681B6822F070029A617B681B6833
S3150800C1B004225A607B6A002B08D07B685A6A7B6A1D
S3150800C1C01A437B685A62786800F072F800BF28370D
S3150800C1D0BD4680BD80B483B000AF786000BF0C3721
S3150800C1E0BD465DF8047B704780B483B000AF7860C5
S3150800C1F000BF0C37BD465DF8047B704780B483B03A
S3150800C20000AF786000BF0C37BD465DF8047B704709
S3150800C21080B483B000AF786000BF0C37BD465DF8C8
S3150800C220047B704780B483B000AF786000BF0C37DA
S3150800C230BD465DF8047B704780B483B000AF786074
S3150800C24000BF0C37BD465DF8047B704780B483B0E9
S3150800C25000AF786000BF0C37BD465DF8047B7047B9
S3150800C26080B483B000AF786000BF0C37BD465DF878
S3150800C270047B704780B483B000AF786000BF0C378A
S3150800C280BD465DF8047B704780B483B000AF786024
S3150800C29000BF0C37BD465DF8047B704780B483B099
S3150800C2A000AF786000BF0C37BD465DF8047B704769
S3150800C2B080B483B000AF786000BF0C37BD465DF828
S3150800C2C0047B704780B485B000AF78607B6803F064
S3150800C2D00703FB600C4BDB68BB60BA684FF6FF03CD
S3150800C2E01340BB60FB681A02BB68134343F0BF6385
S3150800C2F043F40033BB60044ABB68D36000BF1437FD
S3150800C300BD465DF8047B704700ED00E080B400AFE1
S3150800C310044BDB681B0A03F007031846BD465DF8A5
S3150800C320047B704700ED00E080B483B000AF03469D
S3150800C330FB7197F90730002B0BDBFB7903F01F0223
S3150800C340074997F907305B09012000FA02F241F81C
S3150800C350232000BF0C37BD465DF8047B704700BF3D
S3150800C36000E100E080B483B000AF03463960FB719A
S3150800C37097F90730002B0ADB3B68DAB20C4997F9C4
S3150800C38007301201D2B20B4483F800230AE03B6857
S3150800C390DAB20849FB7903F00F03043B1201D2B263
S3150800C3A00B441A7600BF0C37BD465DF8047B704710
S3150800C3B000E100E000ED00E080B489B000AFF8606D
S3150800C3C0B9607A60FB6803F00703FB61FB69C3F198
S3150800C3D00703042B28BF0423BB61FB690433062B20
S3150800C3E002D9FB69033B00E000237B614FF0FF3273
S3150800C3F0BB6902FA03F3DA43BB681A407B699A40C1
S3150800C4004FF0FF317B6901FA03F3D9437B680B4090
S3150800C410134318462437BD465DF8047B7047000071
S3150800C42080B582B000AF78607B68013BB3F1807F4E
S3150800C43001D301230FE00A4A7B68013B53600F21B1
S3150800C4404FF0FF30FFF78EFF054B00229A60044B32
S3150800C45007221A60002318460837BD4680BD00BF6C
S3150800C46010E000E080B582B000AF78607868FFF72A
S3150800C47029FF00BF0837BD4680BD80B586B000AF2E
S3150800C4800346B9607A60FB7300237B61FFF73EFFC2
S3150800C49078617A68B9687869FFF78EFF024697F976
S3150800C4A00F3011461846FFF75DFF00BF1837BD4627
S3150800C4B080BD80B582B000AF0346FB7197F907309F
S3150800C4C01846FFF731FF00BF0837BD4680BD80B567
S3150800C4D082B000AF78607868FFF7A2FF0346184677
S3150800C4E00837BD4680BD80B584B000AF78600023AC
S3150800C4F0FB737B6893F82130022B05D07B680422F6
S3150800C5009A630123FB7327E07B681B681A687B68BC
S3150800C5101B6822F00E021A607B681B681A687B6823
S3150800C5201B6822F001021A607B681A6C7B68DB6B59
S3150800C530012101FA02F25A607B68012283F8212060
S3150800C5407B68002283F820207B685B6B002B03D076
S3150800C5507B685B6B78689847FB7B18461037BD4647
S3150800C56080BD80B483B000AF78607B6893F82130D3
S3150800C57018460C37BD465DF8047B704780B487B013
S3150800C58000AF7860396000237B6160E13B681A6818
S3150800C59001217B6901FA03F31340FB60FB68002B5A
S3150800C5A000F052813B685B6803F00303012B05D05A
S3150800C5B03B685B6803F00303022B30D17B689B68FA
S3150800C5C03B617B695B00032202FA03F3DB433A69AA
S3150800C5D013403B613B68DA687B695B0002FA03F348
S3150800C5E03A6913433B617B683A699A607B685B6882
S3150800C5F03B6101227B6902FA03F3DB433A69134084
S3150800C6003B613B685B681B0903F001027B6902FA20
S3150800C61003F33A6913433B617B683A695A603B689E
S3150800C6205B6803F00303032B17D07B68DB683B6169
S3150800C6307B695B00032202FA03F3DB433A69134082
S3150800C6403B613B689A687B695B0002FA03F33A69C7
S3150800C65013433B617B683A69DA603B685B6803F0C1
S3150800C6600303022B23D17B69DA087B68083253F867
S3150800C67022303B617B6903F007039B000F2202FA15
S3150800C68003F3DB433A6913403B613B681A697B69EC
S3150800C69003F007039B0002FA03F33A6913433B616D
S3150800C6A07B69DA087B680832396943F822107B68A7
S3150800C6B01B683B617B695B00032202FA03F3DB43D9
S3150800C6C03A6913403B613B685B6803F003027B6988
S3150800C6D05B0002FA03F33A6913433B617B683A69E4
S3150800C6E01A603B685B6803F44033002B00F0AC80AB
S3150800C6F05E4B9B695D4A43F0010393615B4B9B6903
S3150800C70003F00103BB60BB68594A7B699B08023387
S3150800C71052F823303B617B6903F003039B000F2229
S3150800C72002FA03F3DB433A6913403B617B68B3F1D2
S3150800C730904F25D07B684F4A93421FD07B684E4A5C
S3150800C740934219D07B684D4A934213D07B684C4A72
S3150800C75093420DD07B684B4A934207D07B684A4A7E
S3150800C760934201D106230CE007230AE0052308E0DB
S3150800C770042306E0032304E0022302E0012300E089
S3150800C78000237A6902F00302920093403A69134340
S3150800C7903B6137497B699B0802333A6941F8232094
S3150800C7A03A4B9B683B61FB68DB433A6913403B6144
S3150800C7B03B685B6803F48013002B03D03A69FB6877
S3150800C7C013433B61314A3B699360304BDB683B61FD
S3150800C7D0FB68DB433A6913403B613B685B6803F4DB
S3150800C7E00013002B03D03A69FB6813433B61274AC1
S3150800C7F03B69D360254B5B683B61FB68DB433A6961
S3150800C80013403B613B685B6803F40033002B03D09D
S3150800C8103A69FB6813433B611C4A3B6953601B4BEF
S3150800C8201B683B61FB68DB433A6913403B613B6825
S3150800C8305B6803F48033002B03D03A69FB68134323
S3150800C8403B61124A3B6913607B6901337B613B6834
S3150800C8501A687B6922FA03F3002B7FF497AE00BFB0
S3150800C86000BF1C37BD465DF8047B704700100240C8
S3150800C870000001400004004800080048000C004879
S3150800C8800010004800140048001800480004014041
S3150800C89080B485B000AF78600B467B807B681A69E8
S3150800C8A07B881340002B02D00123FB7301E0002391
S3150800C8B0FB73FB7B18461437BD465DF8047B70474F
S3150800C8C080B483B000AF78600B467B8013467B70DC
S3150800C8D07B78002B03D07A887B689A6102E07A8895
S3150800C8E07B689A6200BF0C37BD465DF8047B7047CB
S3150800C8F080B582B000AF78607B68002B01D1012338
S3150800C9008DE07B6893F84130DBB2002B06D17B685B
S3150800C910002283F840207868FEF73EFD7B682422D3
S3150800C92083F841207B681B681A687B681B6822F0BD
S3150800C93001021A607B685A687B681B6822F070627D
S3150800C9401A617B681B689A687B681B6822F4004238
S3150800C9509A607B68DB68012B07D17B689A687B68DD
S3150800C9601B6842F400429A6006E07B689A687B6816
S3150800C9701B6842F404429A607B68DB68022B08D184
S3150800C9807B681B685A687B681B6842F400625A60B9
S3150800C99007E07B681B685A687B681B6822F400629C
S3150800C9A05A607B681B685B687A68126843F0007394
S3150800C9B043F4004353607B681B68DA687B681B682E
S3150800C9C022F40042DA607B681A697B685B6942EA8E
S3150800C9D003017B689B691A027B681B680A43DA6055
S3150800C9E07B68D9697B681A6A7B681B680A431A6080
S3150800C9F07B681B681A687B681B6842F001021A602C
S3150800CA007B6800225A647B68202283F841207B6871
S3150800CA1000221A637B68002283F842200023184606
S3150800CA200837BD4680BD000080B586B000AFF86007
S3150800CA30B9603B601346FB80FB6893F84130DBB274
S3150800CA4003F02803282B40F09880BB68002B02D0FF
S3150800CA50FB88002B05D1FB684FF400725A6401234A
S3150800CA608CE048F20101F86801F012FCFB6893F8C3
S3150800CA704030012B01D1022380E0FB68012283F8B4
S3150800CA804020FB6893F84130DBB22A2B2AD10221D9
S3150800CA90F86801F0FDFBFB681B681B6803F400439C
S3150800CAA0B3F5004F1ED1FB681B681A68FB681B6844
S3150800CAB022F400421A60FB68DB6B002B12D0FB687D
S3150800CAC0DB6B304A5A63FB68DB6B1846FFF70BFDD6
S3150800CAD00346002B06D0FB68DB6B5B6BFA68D26BF0
S3150800CAE010469847FB68292283F84120FB682022D4
S3150800CAF083F84220FB6800225A64FB681B685A6860
S3150800CB00FB681B6822F400425A60FB68BA685A62DE
S3150800CB10FB68FA885A85FB685B8D9AB2FB681A85AA
S3150800CB20FB683A68DA62FB68174A5A63FB681B684F
S3150800CB309B6903F00803082B0CBF01230023DBB213
S3150800CB40FB75FB681B689B691B0CDBB203F00103D2
S3150800CB50DBB2012B06D1FB7D002B03D0FB681B68DB
S3150800CB600822DA61FB68002283F8402048F20101B6
S3150800CB70F86801F009FB002300E00123184618377E
S3150800CB80BD4680BDE7E00008B3CE000880B586B094
S3150800CB9000AFF860B9603B601346FB80FB6893F80A
S3150800CBA04130DBB203F02803282B40F09880BB689D
S3150800CBB0002B02D0FB88002B05D1FB684FF40072CE
S3150800CBC05A6401238CE048F20201F86801F060FB20
S3150800CBD0FB6893F84030012B01D1022380E0FB6803
S3150800CBE0012283F84020FB6893F84130DBB2292BF9
S3150800CBF02AD10121F86801F04BFBFB681B681B680A
S3150800CC0003F48043B3F5804F1ED1FB681B681A688E
S3150800CC10FB681B6822F480421A60FB689B6B002B3A
S3150800CC2012D0FB689B6B304A5A63FB689B6B1846AD
S3150800CC30FFF759FC0346002B06D0FB689B6B5B6B22
S3150800CC40FA68926B10469847FB682A2283F84120B7
S3150800CC50FB68202283F84220FB6800225A64FB689E
S3150800CC601B685A68FB681B6822F400425A60FB6816
S3150800CC70BA685A62FB68FA885A85FB685B8D9AB26D
S3150800CC80FB681A85FB683A68DA62FB68174A5A63D2
S3150800CC90FB681B689B6903F00803082B0CBF01237C
S3150800CCA00023DBB2FB75FB681B689B691B0CDBB2B8
S3150800CCB003F00103DBB2002B06D1FB7D002B03D06A
S3150800CCC0FB681B680822DA61FB68002283F84020AB
S3150800CCD048F20201F86801F057FA002300E0012340
S3150800CCE018461837BD4680BDE7E00008B3CE0008F1
S3150800CCF080B582B000AF78607B6893F84130DBB2CC
S3150800CD00202B0DD17B68282283F841207B68074AAF
S3150800CD105A634FF40041786801F036FA002300E0C0
S3150800CD20022318460837BD4680BD00BFB3CE0008AB
S3150800CD3080B584B000AF78607B681B689B69FB6030
S3150800CD407B681B681B68BB607B685B6B002B05D028
S3150800CD507B685B6BBA68F9687868984700BF1037D4
S3150800CD60BD4680BD80B586B000AF78607B681B681D
S3150800CD709B697B617B681B681B683B617B691B0A37
S3150800CD8003F00103002B10D03B69DB0903F0010314
S3150800CD90002B0AD07B685B6C43F001027B685A64FF
S3150800CDA07B681B684FF48072DA617B699B0A03F023
S3150800CDB00103002B10D03B69DB0903F00103002BAC
S3150800CDC00AD07B685B6C43F008027B685A647B6810
S3150800CDD01B684FF48062DA617B695B0A03F0010322
S3150800CDE0002B10D03B69DB0903F00103002B0AD0A6
S3150800CDF07B685B6C43F002027B685A647B681B683D
S3150800CE004FF40072DA617B685B6CFB60FB6803F0C9
S3150800CE100B03002B03D0F968786801F029F800BFE6
S3150800CE201837BD4680BD80B483B000AF786000BFB8
S3150800CE300C37BD465DF8047B704780B483B000AFFD
S3150800CE40786000BF0C37BD465DF8047B704780B438
S3150800CE5083B000AF786000BF0C37BD465DF8047B31
S3150800CE60704780B483B000AF786000BF0C37BD460A
S3150800CE705DF8047B704780B483B000AF786000BF6C
S3150800CE800C37BD465DF8047B704780B483B000AFAD
S3150800CE90786000BF0C37BD465DF8047B704780B4E8
S3150800CEA083B000AF786000BF0C37BD465DF8047BE1
S3150800CEB0704780B586B000AFF860B9607A60FB68E5
S3150800CEC0DB6A7B61BB683B61FB6893F84030012BEA
S3150800CED001D10223EDE0FB68012283F840203B697B
S3150800CEE05B0903F00103002B0AD07B685B0903F09A
S3150800CEF00103002B04D03969F86800F0F9FDD3E086
S3150800CF003B691B0903F00103002B4DD07B681B0905
S3150800CF1003F00103002B47D0FB685B8D9BB2002B07
S3150800CF2028D1FB6893F84130DBB2282B08D17B69FE
S3150800CF30B3F1007F04D13969F86800F043FF32E0A5
S3150800CF40FB6893F84130DBB2292B0ED17B6913F5C8
S3150800CF50803F0AD0FB681B681022DA61F86801F086
S3150800CF609EF8F86800F09CFC1DE0FB681B68102220
S3150800CF70DA6196E0FB681B681022DA61FB685B6C75
S3150800CF8043F00402FB685A647B69002B04D07B6972
S3150800CF90B3F1807F40F08580FB685B6C1946F868C2
S3150800CFA000F066FF7DE07CE03B699B0803F0010327
S3150800CFB0002B30D07B689B0803F00103002B2AD096
S3150800CFC0FB685B8D9BB2002B18D0FB681B685A6AFE
S3150800CFD0FB685B6AD2B21A70FB685B6A5A1CFB680C
S3150800CFE05A62FB681B8D013B9AB2FB681A85FB687F
S3150800CFF05B8D9BB2013B9AB2FB685A85FB685B8DD9
S3150800D0009BB2002B4FD17B6913F5803F4BD0F86854
S3150800D01000F046FC47E03B69DB0803F00103002B00
S3150800D0200AD07B68DB0803F00103002B04D03969BA
S3150800D030F86800F074FB37E03B695B0803F001030E
S3150800D040002B31D07B685B0803F00103002B2BD043
S3150800D050FB685B8D9BB2002B18D0FB685B6A1A785D
S3150800D060FB681B689A62FB685B6A5A1CFB685A6213
S3150800D070FB685B8D9BB2013B9AB2FB685A85FB68DD
S3150800D0801B8D013B9AB2FB681A850DE07B69B3F1EB
S3150800D090807F02D07B69002B06D1F86800F000FC7F
S3150800D0A002E000BF00E000BFFB68002283F84020D2
S3150800D0B0002318461837BD4680BD80B588B002AF34
S3150800D0C0F860B9607A60FB6893F84030012B01D1AB
S3150800D0D00223F0E0FB68012283F84020BB681B09A5
S3150800D0E003F00103002B17D07B681B0903F001032B
S3150800D0F0002B11D0FB681B681022DA61FB685B6C99
S3150800D10043F00402FB685A642021F86801F03CF8F1
S3150800D110F86800F0C4FFC9E0BB68DB0903F0010347
S3150800D120002B00F081807B689B0903F00103002B2C
S3150800D1307AD0FB681B681A68FB681B6822F04002F5
S3150800D1401A60FB685B8D9BB2002B5CD0FB681B6882
S3150800D1505B689BB2C3F309037B82FB685B8D9BB25A
S3150800D160FF2B14D9FB681B689B691B0CDBB203F009
S3150800D1700103DBB2012B03D1FB6801221A8502E009
S3150800D180FB68FF221A854FF080737B6110E0FB680D
S3150800D1905B8D9AB2FB681A85FB68DB6A13F5803FDC
S3150800D1A003D0FB68DB6A7B6102E04FF000737B61AA
S3150800D1B0FB681B8DDAB2798A002300937B69F868CD
S3150800D1C000F0B0FFFB685B8D9AB2FB681B8DD31A23
S3150800D1D09AB2FB685A85FB6893F84130DBB2222B7A
S3150800D1E008D1FB681B681A68FB681B6842F4004292
S3150800D1F01A605BE0FB681B681A68FB681B6842F4E8
S3150800D20080421A6052E0FB681B685B6803F0007393
S3150800D210B3F1007F03D0F86800F005FB46E0402133
S3150800D220F86800F025FE41E0BB689B0903F001039E
S3150800D230002B29D07B689B0903F00103002B23D020
S3150800D240FB685B8D9BB2002B19D1FB681B685B687A
S3150800D25003F00073B3F1007F27D0FB68DB6A13F590
S3150800D260803F08D1FB681B685A68FB681B6842F454
S3150800D27080425A6019E0F86800F0D5FA15E04021B6
S3150800D280F86800F0F5FD10E0BB685B0903F00103E0
S3150800D290002B0BD07B685B0903F00103002B05D03C
S3150800D2A0B968F86800F05AFB00E000BFFB68002286
S3150800D2B083F84020002318461837BD4680BD000075
S3150800D2C080B588B002AFF860B9607A60944B7B612C
S3150800D2D0FB6893F84030012B01D1022339E1FB6842
S3150800D2E0012283F84020BB681B0903F00103002BC9
S3150800D2F017D07B681B0903F00103002B11D0FB68CC
S3150800D3001B681022DA61FB685B6C43F00402FB6859
S3150800D3105A642021F86800F037FFF86800F0BFFE6D
S3150800D32012E1BB685B0803F00103002B0FD07B6892
S3150800D3305B0803F00103002B09D0FB681B68FA6839
S3150800D340126D9A62FB684FF0FF321A65FCE0BB6803
S3150800D350DB0903F00103002B6ED07B689B0903F001
S3150800D3600103002B68D00121F86800F091FF102115
S3150800D370F86800F009FFFB685B8D9BB2002B56D05E
S3150800D380FB685B8D9BB2FF2B1ED9FB681B689B69EC
S3150800D3901B0CDBB203F00103DBB2012B03D1FB68E4
S3150800D3A001221A8502E0FB68FF221A85FB68DB6CFE
S3150800D3B099B2FB681B8DDAB2002300934FF0807395
S3150800D3C0F86800F0AFFE11E0FB685B8D9AB2FB6867
S3150800D3D01A85FB68DB6C99B2FB681B8DDAB20023F1
S3150800D3E000934FF00073F86800F09CFEFB685B8DB5
S3150800D3F09AB2FB681B8DD31A9AB2FB685A85FB68EA
S3150800D40093F84130DBB2222B08D1FB681B681A68F7
S3150800D410FB681B6842F400421A6095E0FB681B68CB
S3150800D4201A68FB681B6842F480421A608CE0402147
S3150800D430F86800F01DFD87E0BB689B0903F001034F
S3150800D440002B71D07B689B0903F00103002B6BD07E
S3150800D4500121F86800F01CFF1021F86800F094FE1E
S3150800D460FB6893F84130DBB2222B01D12D4B7B614F
S3150800D470FB685B8D9BB2FF2B1ED9FB681B689B69FB
S3150800D4801B0CDBB203F00103DBB2012B03D1FB68F3
S3150800D49001221A8502E0FB68FF221A85FB68DB6C0D
S3150800D4A099B2FB681B8DDAB27B6900934FF08073E3
S3150800D4B0F86800F037FE11E0FB685B8D9AB2FB68EE
S3150800D4C01A85FB68DB6C99B2FB681B8DDAB27B693F
S3150800D4D000934FF00073F86800F024FEFB685B8D3C
S3150800D4E09AB2FB681B8DD31A9AB2FB685A85FB68F9
S3150800D4F093F84130DBB2222B08D1FB681B681A6807
S3150800D500FB681B6842F400421A601DE0FB681B6852
S3150800D5101A68FB681B6842F480421A6014E000BF70
S3150800D5200020008000240080BB685B0903F001032B
S3150800D530002B09D07B685B0903F00103002B03D09D
S3150800D540B968F86800F00AFAFB68002283F84020F8
S3150800D550002318461837BD4680BD00BF80B588B081
S3150800D56000AFF860B9607A60FB68DB6ABB610023CC
S3150800D570FB61FB6893F84030012B01D10223CAE016
S3150800D580FB68012283F84020BB685B0903F00103AE
S3150800D590002B0AD07B685B0903F00103002B04D03B
S3150800D5A0B968F86800F0A4FAB0E0BB681B0903F094
S3150800D5B00103002B00F09A807B681B0903F0010326
S3150800D5C0002B00F093807B689B0B03F00103002B74
S3150800D5D005D17B68DB0B03F00103002B7FD0FB68CA
S3150800D5E0DB6B002B0DD07B68DB0B03F00103002BF4
S3150800D5F007D0FB68DB6B1B685B68002B01D1012336
S3150800D600FB61FB689B6B002B0DD07B689B0B03F0C3
S3150800D6100103002B07D0FB689B6B1B685B68002B1C
S3150800D62001D10123FB61FB69012B28D1FB6893F823
S3150800D6304130DBB2282B08D1BB69B3F1007F04D196
S3150800D640B968F86800F0BEFB48E0FB6893F841301B
S3150800D650DBB2292B0ED1BB6913F5803F0AD0FB68D4
S3150800D6601B681022DA61F86800F019FDF86800F006
S3150800D67017F933E0FB681B681022DA6134E0FB68AF
S3150800D6801B681022DA61FB685B6C43F00402FB68D6
S3150800D6905A64FB6893F84130FB75BB69002B03D0CD
S3150800D6A0BB69B3F1807F1FD1FB7D212B02D0FB7DA7
S3150800D6B0292B03D1FB6821221A6308E0FB7D222B64
S3150800D6C002D0FB7D2A2B02D1FB6822221A63FB6853
S3150800D6D05B6C1946F86800F0CBFB05E004E0FB68D4
S3150800D6E01B681022DA6111E000BF0FE0BB68DB0897
S3150800D6F003F00103002B09D07B68DB0803F0010364
S3150800D700002B03D0B968F86800F009F8FB68002216
S3150800D71083F84020002318462037BD4680BD80B5D3
S3150800D72084B000AF786039607B6893F84130DBB22B
S3150800D73003F02803282B6AD17B681B689B691B0C9E
S3150800D740DBB203F00103FB737B681B689B691B0C48
S3150800D7509BB203F0FE03BB817B681B689B689BB288
S3150800D760C3F309037B817B681B68DB689BB203F004
S3150800D770FE033B817B68DB68022B38D17B89DB099A
S3150800D7809AB2BB8953409BB203F00603002B1CD107
S3150800D7907B89BB817B689B6C5A1C7B689A647B6817
S3150800D7A09B6C022B3BD17B6800229A647B681B68C2
S3150800D7B00822DA617B68002283F84020BA89FB7B5D
S3150800D7C019467868FDF706F829E03B89BB814FF4CE
S3150800D7D00041786800F05CFD7B68002283F84020F1
S3150800D7E0BA89FB7B19467868FCF7F4FF17E04FF413
S3150800D7F00041786800F04CFD7B68002283F84020E1
S3150800D800BA89FB7B19467868FCF7E4FF07E07B6872
S3150800D8101B680822DA617B68002283F8402000BF73
S3150800D8201037BD4680BD80B582B000AF78607B6892
S3150800D830002283F842207B6893F84130DBB2212B23
S3150800D84015D17B68202283F841207B6811221A6350
S3150800D8507B6800225A630121786800F019FD7B680D
S3150800D860002283F840207868FFF7DDFA14E07B6829
S3150800D870202283F841207B6812221A637B680022E3
S3150800D8805A630221786800F003FD7B68002283F85A
S3150800D89040207868FFF7D1FA00BF0837BD4680BD3B
S3150800D8A080B584B000AF78607B681B681B68FB6036
S3150800D8B07B68002283F84220FB689B0B03F0010378
S3150800D8C0002B08D07B681B681A687B681B6822F4E3
S3150800D8D080421A600DE0FB68DB0B03F00103002BA6
S3150800D8E007D07B681B681A687B681B6822F40042AD
S3150800D8F01A607B6893F84130DBB2292B12D17B681A
S3150800D900282283F841207B6821221A63012178683E
S3150800D91000F0BEFC7B68002283F840207868FFF799
S3150800D92096FA17E07B6893F84130DBB22A2B11D1BF
S3150800D9307B68282283F841207B6822221A63022109
S3150800D940786800F0A5FC7B68002283F84020786898
S3150800D950FFF787FA00BF1037BD4680BD80B586B091
S3150800D96000AF786039603B687B617B681B68202262
S3150800D970DA617B6893F84130DBB2212B07D10121AC
S3150800D980786800F085FC7B6811221A630CE07B68D6
S3150800D99093F84130DBB2222B06D10221786800F0D9
S3150800D9A077FC7B6812221A637B681B6859687B6858
S3150800D9B01A684D4B0B4053607B6800225A637B689C
S3150800D9C04A4ADA627B691B0903F00103002B09D076
S3150800D9D07B681B681022DA617B685B6C43F0040283
S3150800D9E07B685A647B6893F84130DBB2602B0BD1B5
S3150800D9F07B699B0803F00103002B05D07B681B6835
S3150800DA005B6ADBB2FB60FB68786800F048FB7B6802
S3150800DA105B6C3B617B6893F84130DBB2602B02D0CC
S3150800DA203B69002B06D07B685B6C1946786800F06A
S3150800DA301FFA54E07B6893F84130DBB2212B24D1DE
S3150800DA407B68202283F841207B6800221A637B6862
S3150800DA5093F84230DBB2402B0BD17B68002283F867
S3150800DA6042207B68002283F840207868FFF703FA93
S3150800DA7035E07B68002283F842207B68002283F821
S3150800DA8040207868FFF7CFF929E07B6893F84130A2
S3150800DA90DBB2222B23D17B68202283F841207B68C6
S3150800DAA000221A637B6893F84230DBB2402B0BD115
S3150800DAB07B68002283F842207B68002283F8402096
S3150800DAC07868FFF7E2F90AE07B68002283F84220CB
S3150800DAD07B68002283F840207868FFF7AEF900BF1C
S3150800DAE01837BD4680BD00BF00E800FE0000FFFFF6
S3150800DAF080B586B000AF786039607B681B681B68A4
S3150800DB003B613B687B617B68DB6AFB607B6893F8FB
S3150800DB104130FB727B681B682022DA61FB7A212B75
S3150800DB2002D0FB7A292B08D148F20101786800F067
S3150800DB30AFFB7B6821221A6319E0FB7A222B02D0FD
S3150800DB40FB7A2A2B08D148F20201786800F0A0FB7C
S3150800DB507B6822221A630AE0FB7A282B07D148F24F
S3150800DB600301786800F094FB7B6800221A637B68DF
S3150800DB701B685A687B681B6842F400425A607B68D7
S3150800DB801B6859687B681A688C4B0B405360786829
S3150800DB9000F085FA3B699B0B03F00103002B13D0B9
S3150800DBA07B681B681A687B681B6822F480421A60C7
S3150800DBB07B689B6B002B20D07B689B6B1B685B6824
S3150800DBC09AB27B685A8518E03B69DB0B03F00103C0
S3150800DBD0002B12D07B681B681A687B681B6822F4C6
S3150800DBE000421A607B68DB6B002B06D07B68DB6B18
S3150800DBF01B685B689AB27B685A857B699B0803F049
S3150800DC000103002B20D07B6923F004037B617B682A
S3150800DC101B685A6A7B685B6AD2B21A707B685B6A51
S3150800DC205A1C7B685A627B681B8D002B0CD07B685C
S3150800DC301B8D013B9AB27B681A857B685B8D9BB20C
S3150800DC40013B9AB27B685A857B685B8D9BB2002B39
S3150800DC5005D07B685B6C43F004027B685A647B6979
S3150800DC601B0903F00103002B4AD03B691B0903F08B
S3150800DC700103002B44D07B685B8D9BB2002B28D117
S3150800DC807B6893F84130DBB2282B08D1FB68B3F1E7
S3150800DC90007F04D17969786800F094F830E07B68F1
S3150800DCA093F84130DBB2292B0ED1FB6813F5803F80
S3150800DCB00AD07B681B681022DA61786800F0EFF9F1
S3150800DCC07868FFF7EDFD1BE07B681B681022DA61B8
S3150800DCD016E07B681B681022DA617B685B6C43F090
S3150800DCE004027B685A64FB68002B03D0FB68B3F117
S3150800DCF0807F05D17B685B6C1946786800F0B8F8B8
S3150800DD007B68002283F842207B6800225A637B687E
S3150800DD105B6C002B10D07B685B6C1946786800F04A
S3150800DD20A7F87B6893F84130DBB2282B41D1796993
S3150800DD30786800F047F83CE07B68DB6A13F5803FBB
S3150800DD4014D07868FFF7ACFD7B681D4ADA627B68F9
S3150800DD50202283F841207B6800221A637B68002210
S3150800DD6083F840207868FCF7E9FC22E07B6893F8A2
S3150800DD704130DBB2222B0ED17B68202283F841206A
S3150800DD807B6800221A637B68002283F84020786843
S3150800DD90FFF767F80DE07B68202283F841207B684F
S3150800DDA000221A637B68002283F840207868FFF710
S3150800DDB04EF800BF1837BD4680BD00BF00E800FE1C
S3150800DDC00000FFFF80B582B000AF786039607B68DD
S3150800DDD0264ADA627B6800221A637B68202283F867
S3150800DDE041207B68002283F842207B6800225A6320
S3150800DDF03B689B0803F00103002B22D07B681B6855
S3150800DE005A6A7B685B6AD2B21A707B685B6A5A1C6C
S3150800DE107B685A627B681B8D002B12D07B681B8D32
S3150800DE20013B9AB27B681A857B685B8D9BB2013B86
S3150800DE309AB27B685A857B685B6C43F004027B6800
S3150800DE405A6448F20301786800F022FA7B681B6876
S3150800DE501022DA617B68002283F840207868FCF794
S3150800DE606DFC00BF0837BD4680BD00BF0000FFFF40
S3150800DE7080B584B000AF786039607B6893F841302C
S3150800DE80FB737B68002283F842207B686D4ADA625E
S3150800DE907B6800225A857B685A6C3B681A437B6804
S3150800DEA05A64FB7B282B05D0FB7B292B02D0FB7BF6
S3150800DEB02A2B0BD10321786800F0EAF97B6828221F
S3150800DEC083F841207B68604A5A6330E048F20301D0
S3150800DED0786800F0DDF9786800F0E1F87B6893F877
S3150800DEE04130DBB2602B1FD07B68202283F84120AB
S3150800DEF07B681B689B6903F02003202B14D17B6881
S3150800DF001B689B6903F01003102B09D17B681B68FB
S3150800DF101022DA617B685B6C43F004027B685A6402
S3150800DF207B681B682022DA617B6800225A637B685B
S3150800DF301B6BBB607B689B6B002B39D0BB68112BB6
S3150800DF4002D0BB68212B33D17B681B681B6803F49E
S3150800DF508043B3F5804F07D17B681B681A687B68D6
S3150800DF601B6822F480421A607B689B6B1846FEF792
S3150800DF70F8FA0346012B17D07B689B6B334A5A6322
S3150800DF807B68002283F840207B689B6B1846FEF767
S3150800DF90AAFA0346002B4DD07B689B6B5B6B7A68AD
S3150800DFA0926B1046984745E0786800F051F841E0D2
S3150800DFB07B68DB6B002B39D0BB68122B02D0BB68A1
S3150800DFC0222B33D17B681B681B6803F40043B3F527
S3150800DFD0004F07D17B681B681A687B681B6822F4A8
S3150800DFE000421A607B68DB6B1846FEF7BAFA0346EE
S3150800DFF0012B17D07B68DB6B144A5A637B680022B7
S3150800E00083F840207B68DB6B1846FEF76CFA0346FC
S3150800E010002B11D07B68DB6B5B6B7A68D26B104682
S3150800E020984709E0786800F013F805E0786800F08A
S3150800E0300FF802E000BF00E000BF00BF1037BD4682
S3150800E04080BD00BF0000FFFFB3CE0008E7E0000870
S3150800E05080B582B000AF78607B6893F84130DBB258
S3150800E060602B0ED17B68202283F841207B68002232
S3150800E0701A637B68002283F840207868FEF70FFF52
S3150800E08009E07B6800221A637B68002283F8402037
S3150800E0907868FCF7CBFB00BF0837BD4680BD80B467
S3150800E0A083B000AF78607B681B689B6903F0020346
S3150800E0B0022B03D17B681B6800229A627B681B6867
S3150800E0C09B6903F00103012B07D07B681B689A69DB
S3150800E0D07B681B6842F001029A6100BF0C37BD4697
S3150800E0E05DF8047B704780B584B000AF78607B68C4
S3150800E0F05B6AFB60FB689B6B002B03D0FB689B6B22
S3150800E10000225A63FB68DB6B002B03D0FB68DB6BD2
S3150800E11000225A63F868FFF79BFF00BF1037BD4619
S3150800E12080BD000080B487B000AFF8607B600B4606
S3150800E1307B8113467B727B89C3F309027B7A1B04B6
S3150800E14003F47F031A437B681A433B6A134323F09D
S3150800E15000437B61FB681B685A683B6A5B0D03F4E6
S3150800E1608061084B0B43DB4302EA0301FB681B682B
S3150800E1707A690A435A6000BF1C37BD465DF8047BBE
S3150800E180704700BFFF63FF0380B485B000AF7860B7
S3150800E1900B467B800023FB607B685B6B394A9342A6
S3150800E1A032D07B685B6B384A93422DD07B685B6BB9
S3150800E1B0364A934228D0B7F90230002B03DAFB68B7
S3150800E1C043F0B803FB607B8803F00103002B03D000
S3150800E1D0FB6843F0F203FB607B8803F00203002B25
S3150800E1E003D0FB6843F0F403FB607B88102B03D154
S3150800E1F0FB6843F09003FB607B88202B33D1FB68D8
S3150800E20043F02003FB602EE0B7F90230002B03DA57
S3150800E210FB6843F0B803FB607B8803F00103002B1F
S3150800E22003D0FB6843F0F203FB607B8803F002032C
S3150800E230002B03D0FB6843F0F403FB607B88102BAC
S3150800E24003D1FB6843F09003FB607B88202B03D146
S3150800E250FB6843F06003FB607B88402B03D1FB68B7
S3150800E26043F04003FB607B681B6819687B681B6882
S3150800E270FA680A431A6000BF1437BD465DF8047B86
S3150800E280704700BFBBD000085DD50008C1D20008A2
S3150800E29080B485B000AF78600B467B800023FB60B6
S3150800E2A07B8803F00103002B0FD0FB6843F0420381
S3150800E2B0FB607B6893F84130DBB203F02803282B18
S3150800E2C003D0FB6843F0B003FB607B8803F00203CE
S3150800E2D0002B0FD0FB6843F04403FB607B6893F880
S3150800E2E04130DBB203F02803282B03D0FB6843F048
S3150800E2F0B003FB60B7F90230002B03DAFB6843F082
S3150800E300B803FB607B88102B03D1FB6843F09003AE
S3150800E310FB607B88202B03D1FB6843F02003FB605E
S3150800E3207B88402B03D1FB6843F04003FB607B6886
S3150800E3301B681968FB68DA437B681B680A401A6021
S3150800E34000BF1437BD465DF8047B704780B483B0C0
S3150800E35000AF786039607B6893F84130DBB2202BD8
S3150800E36038D17B6893F84030012B01D1022332E083
S3150800E3707B68012283F840207B68242283F84120A9
S3150800E3807B681B681A687B681B6822F001021A60A2
S3150800E3907B681B681A687B681B6822F480521A60BF
S3150800E3A07B681B6819687B681B683A680A431A60A9
S3150800E3B07B681B681A687B681B6842F001021A6052
S3150800E3C07B68202283F841207B68002283F840205E
S3150800E3D0002300E0022318460C37BD465DF8047B8F
S3150800E3E0704780B485B000AF786039607B6893F871
S3150800E3F04130DBB2202B39D17B6893F84030012BB2
S3150800E40001D1022333E07B68012283F840207B6830
S3150800E410242283F841207B681B681A687B681B687E
S3150800E42022F001021A607B681B681B68FB60FB68A8
S3150800E43023F47063FB603B681B02FA681343FB60B6
S3150800E4407B681B68FA681A607B681B681A687B68B1
S3150800E4501B6842F001021A607B68202283F841207B
S3150800E4607B68002283F84020002300E00223184638
S3150800E4701437BD465DF8047B7047000080B5ADF5DE
S3150800E480027D00AF07F50273A3F50173186007F55F
S3150800E4900273A3F501731B68002B02D1012301F057
S3150800E4A00AB807F50273A3F501731B681B6803F026
S3150800E4B00103002B00F06181AE4B5B6803F00C038F
S3150800E4C0042B0CD0AB4B5B6803F00C03082B57D11D
S3150800E4D0A84B5B6803F4C033B3F5803F50D14FF4C3
S3150800E4E00033C7F8F431D7F8F43193FAA3F3C7F831
S3150800E4F0F031D7F8F031B3FA83F3DBB23F2B02D809
S3150800E5009C4B1B6815E04FF40033C7F8EC31D7F87D
S3150800E510EC3193FAA3F3C7F8E8314FF40033C7F8A0
S3150800E520E431D7F8E43193FAA3F3C7F8E031914B15
S3150800E5305B6A4FF40032C7F8DC21D7F8DC2192FA7F
S3150800E540A2F2C7F8D821D7F8D821B2FA82F2D2B205
S3150800E55042F02002D2B202F01F02012101FA02F2B1
S3150800E5601340002B00F0088107F50273A3F5017329
S3150800E5701B685B68002B40F0FF80012300F09BBFFF
S3150800E58007F50273A3F501731B685B68B3F5803F53
S3150800E59006D1784B1B68774A43F48033136036E01C
S3150800E5A007F50273A3F501731B685B68002B0CD192
S3150800E5B0704B1B686F4A23F4803313606D4B1B68DE
S3150800E5C06C4A23F48023136021E007F50273A3F550
S3150800E5D001731B685B68B3F5A02F0CD1654B1B68EC
S3150800E5E0644A43F480231360624B1B68614A43F410
S3150800E5F0803313600BE05F4B1B685E4A23F480335D
S3150800E60013605C4B1B685B4A23F48023136007F591
S3150800E6100273A3F501731B685B68002B54D0FCF7E3
S3150800E620F5FFC7F800020AE0FCF7F0FF0246D7F844
S3150800E6300032D31A642B02D9032300F03CBF4FF4EF
S3150800E6400033C7F8D431D7F8D43193FAA3F3C7F80F
S3150800E650D031D7F8D031B3FA83F3DBB23F2B02D8E7
S3150800E660444B1B6815E04FF40033C7F8CC31D7F894
S3150800E670CC3193FAA3F3C7F8C8314FF40033C7F87F
S3150800E680C431D7F8C43193FAA3F3C7F8C031394B6C
S3150800E6905B6A4FF40032C7F8BC21D7F8BC2192FA5E
S3150800E6A0A2F2C7F8B821D7F8B821B2FA82F2D2B2E4
S3150800E6B042F02002D2B202F01F02012101FA02F250
S3150800E6C01340002BB0D058E0FCF7A0FFC7F80002B3
S3150800E6D00AE0FCF79BFF0246D7F80032D31A642BF0
S3150800E6E002D9032300F0E7BE4FF40033C7F8B4316C
S3150800E6F0D7F8B43193FAA3F3C7F8B031D7F8B031E5
S3150800E700B3FA83F3DBB23F2B02D81A4B1B6815E02A
S3150800E7104FF40033C7F8AC31D7F8AC3193FAA3F30A
S3150800E720C7F8A8314FF40033C7F8A431D7F8A43195
S3150800E73093FAA3F3C7F8A0310E4B5B6A4FF4003285
S3150800E740C7F89C21D7F89C2192FAA2F2C7F898211B
S3150800E750D7F89821B2FA82F2D2B242F02002D2B2A7
S3150800E76002F01F02012101FA02F21340002BB0D178
S3150800E77003E000BF0010024000BF07F50273A3F5CF
S3150800E78001731B681B6803F00203002B00F06D8100
S3150800E790CD4B5B6803F00C03002B0CD0CA4B5B68AF
S3150800E7A003F00C03082B6ED1C74B5B6803F4C03328
S3150800E7B0B3F5004F67D10223C7F89431D7F89431DF
S3150800E7C093FAA3F3C7F89031D7F89031B3FA83F3E5
S3150800E7D0DBB23F2B02D8BC4B1B6813E00223C7F8F9
S3150800E7E08C31D7F88C3193FAA3F3C7F88831022312
S3150800E7F0C7F88431D7F8843193FAA3F3C7F8803180
S3150800E800B14B5B6A0222C7F87C21D7F87C2192FAC1
S3150800E810A2F2C7F87821D7F87821B2FA82F2D2B2F2
S3150800E82042F02002D2B202F01F02012101FA02F2DE
S3150800E8301340002B0AD007F50273A3F501731B6872
S3150800E840DB68012B02D0012300F035BE9E4B1B6806
S3150800E85023F0F80207F50273A3F501731B681B6919
S3150800E860F821C7F87411D7F8741191FAA1F1C7F80D
S3150800E8707011D7F87011B1FA81F1C9B28B4092497B
S3150800E88013430B60F1E007F50273A3F501731B68E8
S3150800E890DB68002B00F083800123C7F86C31D7F8BA
S3150800E8A06C3193FAA3F3C7F86831D7F86831B3FA2D
S3150800E8B083F3DBB203F1845303F584139B001A46F2
S3150800E8C001231360FCF7A2FEC7F800020AE0FCF772
S3150800E8D09DFE0246D7F80032D31A022B02D903232B
S3150800E8E000F0E9BD0223C7F86431D7F8643193FA1A
S3150800E8F0A3F3C7F86031D7F86031B3FA83F3DBB214
S3150800E9003F2B02D8704B1B6813E00223C7F85C3113
S3150800E910D7F85C3193FAA3F3C7F858310223C7F83E
S3150800E9205431D7F8543193FAA3F3C7F85031664BEC
S3150800E9305B6A0222C7F84C21D7F84C2192FAA2F258
S3150800E940C7F84821D7F84821B2FA82F2D2B242F083
S3150800E9502002D2B202F01F02012101FA02F213408C
S3150800E960002BB4D0584B1B6823F0F80207F5027346
S3150800E970A3F501731B681B69F821C7F84411D7F87A
S3150800E980441191FAA1F1C7F84011D7F84011B1FA2C
S3150800E99081F1C9B28B404C4913430B6065E00123F2
S3150800E9A0C7F83C31D7F83C3193FAA3F3C7F83831A6
S3150800E9B0D7F83831B3FA83F3DBB203F1845303F59E
S3150800E9C084139B001A4600231360FCF71FFEC7F842
S3150800E9D000020AE0FCF71AFE0246D7F80032D31AFC
S3150800E9E0022B02D9032300F066BD0223C7F834318F
S3150800E9F0D7F8343193FAA3F3C7F83031D7F8303162
S3150800EA00B3FA83F3DBB23F2B02D82F4B1B6813E014
S3150800EA100223C7F82C31D7F82C3193FAA3F3C7F899
S3150800EA2028310223C7F82431D7F8243193FAA3F3FF
S3150800EA30C7F82031244B5B6A0222C7F81C21D7F895
S3150800EA401C2192FAA2F2C7F81821D7F81821B2FAAF
S3150800EA5082F2D2B242F02002D2B202F01F020121A3
S3150800EA6001FA02F21340002BB4D107F50273A3F59D
S3150800EA7001731B681B6803F00803002B00F019815B
S3150800EA8007F50273A3F501731B685B69002B00F099
S3150800EA9082800123C7F81431D7F8143193FAA3F307
S3150800EAA0C7F81031D7F81031B3FA83F3DBB21A4638
S3150800EAB0064B13449B001A4601231360FCF7A6FD78
S3150800EAC0C7F800020FE000BF001002402081901036
S3150800EAD0FCF79CFD0246D7F80032D31A022B02D95E
S3150800EAE0032300F0E8BC0223C7F80C31D7F80C3131
S3150800EAF093FAA3F207F50273A3F580731A6007F574
S3150800EB000273A3F5827302221A6007F50273A3F54E
S3150800EB1082731B6893FAA3F207F50273A3F584734D
S3150800EB201A6007F50273A3F5867302221A6007F5C1
S3150800EB300273A3F586731B6893FAA3F207F50273AB
S3150800EB40A3F588731A60B04B5A6A07F50273A3F5E2
S3150800EB508A730221196007F50273A3F58A731B6885
S3150800EB6093FAA3F107F50273A3F58C73196007F5F9
S3150800EB700273A3F58C731B68B3FA83F3DBB243F015
S3150800EB806003DBB203F01F03012101FA03F313400C
S3150800EB90002B9DD08DE007F50273A3F58E73012235
S3150800EBA01A6007F50273A3F58E731B6893FAA3F22E
S3150800EBB007F50273A3F590731A6007F50273A3F5B8
S3150800EBC090731B68B3FA83F3DBB21A468F4B134470
S3150800EBD09B001A4600231360FCF718FDC7F80002CD
S3150800EBE00AE0FCF713FD0246D7F80032D31A022BC7
S3150800EBF002D9032300F05FBC07F50273A3F59273ED
S3150800EC0002221A6007F50273A3F592731B6893FA3A
S3150800EC10A3F207F50273A3F594731A6007F5027356
S3150800EC20A3F5967302221A6007F50273A3F5967385
S3150800EC301B6893FAA3F207F50273A3F598731A6093
S3150800EC4007F50273A3F59A7302221A6007F5027391
S3150800EC50A3F59A731B6893FAA3F207F50273A3F553
S3150800EC609C731A60684B5A6A07F50273A3F59E737C
S3150800EC700221196007F50273A3F59E731B6893FAC0
S3150800EC80A3F107F50273A3F5A073196007F50273DC
S3150800EC90A3F5A0731B68B3FA83F3DBB243F06003F2
S3150800ECA0DBB203F01F03012101FA03F31340002B23
S3150800ECB097D107F50273A3F501731B681B6803F068
S3150800ECC00403002B00F09C81002387F807324E4B83
S3150800ECD0DB6903F08053002B16D14B4BDB694A4A9C
S3150800ECE043F08053D361484BDB6903F0805207F544
S3150800ECF00273A3F5FE731A6007F50273A3F5FE7394
S3150800ED001B68012387F80732414B1B6803F480739D
S3150800ED10002B1AD13E4B1B683D4A43F4807313609F
S3150800ED20FCF774FCC7F8000209E0FCF76FFC024622
S3150800ED30D7F80032D31A642B01D90323BBE3344B2B
S3150800ED401B6803F48073002BEFD007F50273A3F555
S3150800ED5001731B689B68012B06D12B4B1B6A2A4A39
S3150800ED6043F00103136235E007F50273A3F5017357
S3150800ED701B689B68002B0CD1234B1B6A224A23F085
S3150800ED8001031362204B1B6A1F4A23F00403136214
S3150800ED9020E007F50273A3F501731B689B68052B32
S3150800EDA00CD1194B1B6A184A43F004031362164B1D
S3150800EDB01B6A154A43F0010313620BE0124B1B6AE8
S3150800EDC0114A23F0010313620F4B1B6A0E4A23F004
S3150800EDD00403136207F50273A3F501731B689B68A6
S3150800EDE0002B00F08580FCF711FCC7F8000211E043
S3150800EDF0FCF70CFC0246D7F80032D31A41F28832E7
S3150800EE00934207D9032356E300100240208190104D
S3150800EE100070004007F50273A3F5A27302221A6078
S3150800EE2007F50273A3F5A2731B6893FAA3F207F515
S3150800EE300273A3F5A4731A6007F50273A3F5A67304
S3150800EE4002221A6007F50273A3F5A6731B6893FAE4
S3150800EE50A3F207F50273A3F5A8731A6007F5027300
S3150800EE60A3F5A8731B68B3FA83F3DBB223F05F0339
S3150800EE70DBB2002B02D1984B1B6A13E007F502732D
S3150800EE80A3F5AA7302221A6007F50273A3F5AA73FB
S3150800EE901B6893FAA3F207F50273A3F5AC731A601D
S3150800EEA08D4B5B6A07F50272A2F5AE7202211160FC
S3150800EEB007F50272A2F5AE72126892FAA2F107F588
S3150800EEC00272A2F5B072116007F50272A2F5B0726D
S3150800EED01268B2FA82F2D2B242F04002D2B202F01C
S3150800EEE01F02012101FA02F21340002B80D07DE0B7
S3150800EEF0FCF78CFBC7F800020BE0FCF787FB024621
S3150800EF00D7F80032D31A41F28832934201D9032343
S3150800EF10D1E207F50273A3F5B27302221A6007F568
S3150800EF200273A3F5B2731B6893FAA3F207F502738B
S3150800EF30A3F5B4731A6007F50273A3F5B673022234
S3150800EF401A6007F50273A3F5B6731B6893FAA3F262
S3150800EF5007F50273A3F5B8731A6007F50273A3F5EC
S3150800EF60B8731B68B3FA83F3DBB223F05F03DBB233
S3150800EF70002B02D1584B1B6A13E007F50273A3F561
S3150800EF80BA7302221A6007F50273A3F5BA731B68EF
S3150800EF9093FAA3F207F50273A3F5BC731A604E4BF6
S3150800EFA05B6A07F50272A2F5BE720221116007F5C7
S3150800EFB00272A2F5BE72126892FAA2F107F50272FF
S3150800EFC0A2F5C072116007F50272A2F5C072126846
S3150800EFD0B2FA82F2D2B242F04002D2B202F01F0274
S3150800EFE0012101FA02F21340002B86D197F8073265
S3150800EFF0012B05D1384BDB69374A23F08053D3619F
S3150800F00007F50273A3F501731B689B69002B00F0D3
S3150800F0105182314B5B6803F00C03082B00F00F821A
S3150800F02007F50273A3F501731B689B69022B40F071
S3150800F030658107F50273A3F5C2734FF080721A60F3
S3150800F04007F50273A3F5C2731B6893FAA3F207F5D3
S3150800F0500273A3F5C4731A6007F50273A3F5C473A4
S3150800F0601B68B3FA83F3DBB203F1845303F5841305
S3150800F0709B001A4600231360FCF7C8FAC7F800027B
S3150800F08009E0FCF7C3FA0246D7F80032D31A022B76
S3150800F09001D903230FE207F50273A3F5C6734FF0F0
S3150800F0A000721A6007F50273A3F5C6731B6893FA14
S3150800F0B0A3F207F50273A3F5C8731A6007F502737E
S3150800F0C0A3F5C8731B68B3FA83F3DBB23F2B05D8E5
S3150800F0D0014B1B682AE000BF0010024007F50273C7
S3150800F0E0A3F5CA734FF000721A6007F50273A3F509
S3150800F0F0CA731B6893FAA3F207F50273A3F5CC73D8
S3150800F1001A6007F50273A3F5CE734FF000721A6002
S3150800F11007F50273A3F5CE731B6893FAA3F207F5F6
S3150800F1200273A3F5D0731A60CA4B5B6A07F50272BD
S3150800F130A2F5D2724FF00071116007F50272A2F5BE
S3150800F140D272126892FAA2F107F50272A2F5D47287
S3150800F150116007F50272A2F5D4721268B2FA82F249
S3150800F160D2B242F02002D2B202F01F02012101FA05
S3150800F17002F21340002B84D1B64BDB6A23F00F0250
S3150800F18007F50273A3F501731B685B6AB14913435C
S3150800F190CB62B04B5B6823F4761207F50273A3F5CE
S3150800F1A001731B68196A07F50273A3F501731B68D7
S3150800F1B0DB690B43A74913434B6007F50273A3F5B5
S3150800F1C0D6734FF080721A6007F50273A3F5D673EB
S3150800F1D01B6893FAA3F207F50273A3F5D8731A60AE
S3150800F1E007F50273A3F5D8731B68B3FA83F3DBB28A
S3150800F1F003F1845303F584139B001A460123136015
S3150800F200FCF704FAC7F8000209E0FCF7FFF9024622
S3150800F210D7F80032D31A022B01D903234BE107F59D
S3150800F2200273A3F5DA734FF000721A6007F50273DA
S3150800F230A3F5DA731B6893FAA3F207F50273A3F52D
S3150800F240DC731A6007F50273A3F5DC731B68B3FA5F
S3150800F25083F3DBB23F2B02D87E4B1B6827E007F50A
S3150800F2600273A3F5DE734FF000721A6007F5027396
S3150800F270A3F5DE731B6893FAA3F207F50273A3F5E9
S3150800F280E0731A6007F50273A3F5E2734FF0007294
S3150800F2901A6007F50273A3F5E2731B6893FAA3F2E3
S3150800F2A007F50273A3F5E4731A606A4B5B6A07F500
S3150800F2B00272A2F5E6724FF00071116007F502724C
S3150800F2C0A2F5E672126892FAA2F107F50272A2F5A1
S3150800F2D0E872116007F50272A2F5E8721268B2FACE
S3150800F2E082F2D2B242F02002D2B202F01F0201210B
S3150800F2F001FA02F21340002B87D0DBE007F5027310
S3150800F300A3F5EA734FF080721A6007F50273A3F546
S3150800F310EA731B6893FAA3F207F50273A3F5EC7375
S3150800F3201A6007F50273A3F5EC731B68B3FA83F347
S3150800F330DBB203F1845303F584139B001A460023BA
S3150800F3401360FCF763F9C7F8000209E0FCF75EF9F9
S3150800F3500246D7F80032D31A022B01D90323AAE0B2
S3150800F36007F50273A3F5EE734FF000721A6007F5FE
S3150800F3700273A3F5EE731B6893FAA3F207F50273FB
S3150800F380A3F5F0731A6007F50273A3F5F0731B680B
S3150800F390B3FA83F3DBB23F2B02D82E4B1B6827E068
S3150800F3A007F50273A3F5F2734FF000721A6007F5BA
S3150800F3B00273A3F5F2731B6893FAA3F207F50273B7
S3150800F3C0A3F5F4731A6007F50273A3F5F6734FF005
S3150800F3D000721A6007F50273A3F5F6731B6893FAB1
S3150800F3E0A3F207F50273A3F5F8731A60194B5B6A63
S3150800F3F007F50272A2F5FA724FF00071116007F56F
S3150800F4000272A2F5FA72126892FAA2F107F502726E
S3150800F410A2F5FC72116007F50272A2F5FC72126879
S3150800F420B2FA82F2D2B242F02002D2B202F01F023F
S3150800F430012101FA02F21340002B87D13AE007F5C1
S3150800F4400273A3F501731B689B69012B04D1012381
S3150800F45031E000BF00100240194B5B68C7F8FC3169
S3150800F460174BDB6AC7F8F831D7F8FC3103F4C0321A
S3150800F47007F50273A3F501731B68DB699A4217D176
S3150800F480D7F8FC3103F4701207F50273A3F501737C
S3150800F4901B681B6A9A420BD1D7F8F83103F00F02A2
S3150800F4A007F50273A3F501731B685B6A9A4201D0DC
S3150800F4B0012300E00023184607F50277BD4680BD04
S3150800F4C00010024080B59EB000AF78603960002316
S3150800F4D07B677B68002B01D1012354E1894B1B68AC
S3150800F4E003F007033A689A4210D9864B1B6823F043
S3150800F4F0070284493B6813430B60824B1B6803F081
S3150800F50007033A689A4201D001233CE17B681B68ED
S3150800F51003F00203002B08D07B4B5B6823F0F00254
S3150800F5207B689B68784913434B607B681B6803F0CC
S3150800F5300103002B00F0CD807B685B68012B37D177
S3150800F5404FF40033FB66FB6E93FAA3F33B673B6FFE
S3150800F550B3FA83F3DBB23F2B02D86B4B1B680FE081
S3150800F5604FF40033BB66BB6E93FAA3F37B664FF486
S3150800F57000333B663B6E93FAA3F3FB65624B5B6A0B
S3150800F5804FF40032BA65BA6D92FAA2F27A657A6DCC
S3150800F590B2FA82F2D2B242F02002D2B202F01F02CE
S3150800F5A0012101FA02F21340002B71D10123EAE08E
S3150800F5B07B685B68022B37D14FF000733B653B6D68
S3150800F5C093FAA3F3FB64FB6CB3FA83F3DBB23F2B2A
S3150800F5D002D84D4B1B680FE04FF00073BB64BB6C41
S3150800F5E093FAA3F37B644FF000733B643B6C93FA86
S3150800F5F0A3F3FB63444B5B6A4FF00072BA63BA6BC2
S3150800F60092FAA2F27A637A6BB2FA82F2D2B242F034
S3150800F6102002D2B202F01F02012101FA02F21340BF
