S01C0000466162726963615F53544D333246335F50726F672E7372656338
S3150800A00000000120C9AB000845AB00084DAB0008AD
S3150800A01055AB00085DAB000865AB00080000000002
S3150800A0200000000000000000000000006DAB000802
S3150800A0307BAB00080000000089AB000897AB00085E
S3150800A04019AC000819AC000819AC000819AC0008CE
S3150800A05019AC000819AC000819AC000819AC0008BE
S3150800A06019AC000819AC000819AC000819AC0008AE
S3150800A07019AC000819AC000819AC000819AC00089E
S3150800A08019AC000819AC000819AC000819AC00088E
S3150800A09019AC000819AC000819AC000819AC00087E
S3150800A0A019AC000819AC000819AC000819AC00086E
S3150800A0B019AC000819AC000819AC000819AC00085E
S3150800A0C019AC000819AC000819AC000819AC00084E
S3150800A0D019AC000819AC000819AC000819AC00083E
S3150800A0E019AC000819AC000819AC000819AC00082E
S3150800A0F019AC000819AC000819AC000819AC00081E
S3150800A10019AC0008000000000000000019AC0008A7
S3150800A11019AC000819AC000819AC000819AC0008FD
S3150800A12019AC000819AC000819AC000819AC0008ED
S3150800A13019AC000819AC0008000000000000000077
S3150800A14019AC000819AC000819AC0008000000009A
S3150800A15000000000000000000000000000000000F1
S3150800A16019AC000819AC000819AC000819AC0008AD
S3150800A17019AC000819AC000819AC000819AC00089D
S3150800A18019AC000819AC0008000000000000000027
S3090800A19019AC0008F0
S3110800A20007814B9AD2040000BD2800001C
S3150800A2C010B5054C237833B9044B13B10448AFF3E2
S3150800A2D000800123237010BD0C0000200000000040
S3150800A2E014B9000808B5034B1BB103490348AFF37B
S3150800A2F0008008BD000000001000002014B9000806
S3150800A30080B500AF00F0A0F900F062F900F020F87F
S3150800A31000BF80BD80B500AF00F064F900F01EF8FC
S3150800A32000BF80BD80B400AFBFF34F8F00BF064BA0
S3150800A330DB6803F4E0620449044B1343CB60BFF3C4
S3150800A3404F8F00BF00BFFDE700ED00E00400FA05EF
S3150800A35080B500AF00F074F800BF80BD80B500AFCF
S3150800A36000F0F4F800BF80BD80B500AFFFF7DAFF54
S3150800A37080B586B000AFB9607A603B600346FB8162
S3150800A38001F072FA03462C4AA2FB03239B093B61A0
S3150800A3900023FB7548E0FA89FB7D284911F813303C
S3150800A3A01846FB7D25495B000B445B780344013363
S3150800A3B002FB03F31A463B69B3FBF2F101FB02F217
S3150800A3C09B1A002B2DD1FA89FB7D1C4911F81330F5
S3150800A3D01846FB7D19495B000B445B78034401333F
S3150800A3E002FB03F31A463B69B3FBF2F39AB2BB6866
S3150800A3F01A80BB681B88002B13D0BB681B88B3F573
S3150800A400806F0ED8FB7D0D4A12F813207B681A70F0
S3150800A410FB7D0A4A5B0013445A783B681A7001238D
S3150800A42006E0FB7D0133FB75FB7D112BB3D90023B9
S3150800A43018461837BD4680BDD34D62102CB90008A2
S3150800A44080B58EB000AF00237B85002387F82930BE
S3150800A450002387F8283040F26763FB6207F1280378
S3150800A46007F1290207F12A014FF4FA70FFF780FF76
S3150800A470324B334A1A60314B00221A762F4B002290
S3150800A4805A762E4B00229A762C4B0122DA762B4BE3
S3150800A49000221A77294B00225A77284B00229A6005
S3150800A4A0264B0022DA6097F82930013B1B04234A21
S3150800A4B0136197F82830013B1B05204A53617B8DB1
S3150800A4C01A461E4B5A601D4800F00EFCFB6A002B0C
S3150800A4D005DBFB6A5B057B631A4B3B630AE0FB6A99
S3150800A4E023F00043FB62FB6ADB0043F004037B6353
S3150800A4F0154B3B6300237B610023BB610123FB6192
S3150800A5007B6B1B0C3B607B6B9BB27B603B6B1B0CBA
S3150800A510BB603B6B9BB2FB6000233B6101233B6244
S3150800A5200E237B623B461946044800F0D8FC0348D4
S3150800A53000F09FFD00BF3837BD4680BD28000020CB
S3150800A540006400400400E0FFFCFF1F0080B58CB0EB
S3150800A55000AF40F26763BB62002387F82F303B1DCC
S3150800A56007F10C020021194800F0C7FD0346002B2D
S3150800A57027D1BB6A002B0ADBFB68BA6A9A4214D158
S3150800A5807B69002B11D1012387F82F300DE0BB6AB8
S3150800A59023F00043BB623B69BA6A9A4205D17B69DC
S3150800A5A0042B02D1012387F82F3097F82F30012B7F
S3150800A5B007D13B79FF2B04D1FB69022B01D1FFF7A9
S3150800A5C0D3FE00BF3037BD4680BD00BF280000203F
S3150800A5D080B500AF002220214FF0904001F020F90D
S3150800A5E000BF80BD80B582B000AF00F034F8786057
S3150800A5F0134B1B687A68D31A40F2DB5293421AD976
S3150800A600104B1B78002B09D10E4B01221A70012220
S3150800A61020214FF0904001F003F908E0094B002291
S3150800A6201A70002220214FF0904001F0F9F8044AF0
S3150800A6307B68136000E000BF0837BD4680BD00BFD9
S3150800A640500000205400002080B400AF00BFBD4673
S3150800A6505DF8047B704780B500AF00F039FB034610
S3150800A660184680BD80B400AF054B1B68044A43F406
S3150800A6708023136000BFBD465DF8047B704700BFAA
S3150800A6800010024080B400AF054B1B68044A43F42F
S3150800A6908033136000BFBD465DF8047B704700BF7A
S3150800A6A00010024080B400AF074B1B6803F4003368
S3150800A6B0B3F5003F0CBF01230023DBB21846BD46A5
S3150800A6C05DF8047B704700BF0010024080B483B079
S3150800A6D000AF7860064B5B6823F0030204497B6889
S3150800A6E013434B6000BF0C37BD465DF8047B7047CB
S3150800A6F00010024080B400AF044B5B6803F00C0303
S3150800A7001846BD465DF8047B704700BF001002403E
S3150800A71080B483B000AF7860064B5B6823F0F00224
S3150800A72004497B6813434B6000BF0C37BD465DF890
S3150800A730047B70470010024080B483B000AF786095
S3150800A740064B5B6823F4E06204497B6813434B605D
S3150800A75000BF0C37BD465DF8047B70470010024009
S3150800A76080B483B000AF7860064B5B6823F4605210
S3150800A77004497B6813434B6000BF0C37BD465DF840
S3150800A780047B70470010024080B483B000AF786045
S3150800A7900A4B1A6B7B681B0E032101FA03F3DB4392
S3150800A7A01A407B6823F07F43044913430B6300BFB9
S3150800A7B00C37BD465DF8047B704700BF00100240A9
S3150800A7C080B400AF054B1B68044A43F080731360DE
S3150800A7D000BFBD465DF8047B704700BF001002400D
S3150800A7E080B400AF074B1B6803F00073B3F1007F1A
S3150800A7F00CBF01230023DBB21846BD465DF8047B77
S3150800A800704700BF0010024080B485B000AFF86002
S3150800A810B9607A600B4B5B6823F47612F968BB68FB
S3150800A8200B43084913434B60064BDB6A23F00F02C0
S3150800A83004497B681343CB6200BF1437BD465DF8F5
S3150800A840047B70470010024080B483B000AF786084
S3150800A850064B1B6823F0070204497B6813430B6009
S3150800A86000BF0C37BD465DF8047B704700200240E8
S3150800A87080B400AF044B1B6803F007031846BD46B7
S3150800A8805DF8047B704700BF0020024080B400AF2B
S3150800A890034B044A9A6000BFBD465DF8047B7047C7
S3150800A8A000ED00E000A0000880B500AFFFF7EEFF5E
S3150800A8B000F0B4F900F008F800F050F8FFF720FDB2
S3150800A8C0FFF728FDFCE7000080B500AF0220FFF780
S3150800A8D0BBFF00BFFFF7CCFF0346022BFAD1FFF7F9
S3150800A8E0C1FEFFF7CFFE00BFFFF7DCFE0346012BD4
S3150800A8F0FAD100224FF4E0114FF48030FFF784FFBD
S3150800A900FFF75EFF00BFFFF76BFF0346012BFAD187
S3150800A9100020FFF7FDFE4FF48060FFF70DFF0020D3
S3150800A920FFF71EFF0220FFF7D1FE00BFFFF7E2FE8A
S3150800A9300346082BFAD1084800F0B8FF002000F0BB
S3150800A94083F90346002B01D000F07CF84FF08050C5
S3150800A950FFF71AFF00BF80BD00A24A0480B58AB07F
S3150800A96000AF07F1140300221A605A609A60DA6091
S3150800A9701A61324B5B69314A43F4002353612F4B0A
S3150800A9805B6903F400233B613B692C4B5B692B4AEB
S3150800A99043F480035361294B5B6903F48003FB602E
S3150800A9A0FB68264B5B69254A43F400335361234B06
S3150800A9B05B6903F40033BB60BB68204B5B691F4AC5
S3150800A9C043F4802353611D4B5B6903F480237B604A
S3150800A9D07B68002220214FF0904000F021FF4FF4C1
S3150800A9E000537B614FF40413BB610023FB6107F13D
S3150800A9F014031946124800F089FD01237B610023E0
S3150800AA00BB610023FB6107F1140319464FF0904020
S3150800AA1000F07CFD20237B610123BB610023FB61E1
S3150800AA2000233B6207F1140319464FF0904000F0EB
S3150800AA306DFD00BF2837BD4680BD00BF001002402F
S3150800AA400008004880B400AF72B600BF00BFFDE73B
S3150800AA5080B582B000AF0F4B9B690E4A43F00103E5
S3150800AA6093610C4B9B6903F001037B607B68094B80
S3150800AA70DB69084A43F08053D361064BDB6903F070
S3150800AA8080533B603B68072000F00CFD00BF083789
S3150800AA90BD4680BD0010024080B58AB000AF786020
S3150800AAA007F1140300221A605A609A60DA601A6184
S3150800AAB07B681B68204A934239D1204BDB691F4AC1
S3150800AAC043F00073D3611D4BDB6903F000733B61F0
S3150800AAD03B691A4B5B69194A43F480235361174B48
S3150800AAE05B6903F48023FB60FB684FF480737B612A
S3150800AAF00223BB610023FB6103233B6209237B62BC
S3150800AB0007F1140319460E4800F000FD4FF40073D0
S3150800AB107B610223BB610123FB6103233B6209239B
S3150800AB207B6207F114031946054800F0EFFC00BFE5
S3150800AB302837BD4680BD00BF0064004000100240B3
S3150800AB400004004880B400AF00BFFDE780B400AF42
S3150800AB5000BFFDE780B400AF00BFFDE780B400AFDB
S3150800AB6000BFFDE780B400AF00BFFDE780B400AFCB
S3150800AB7000BFBD465DF8047B704780B400AF00BFD8
S3150800AB80BD465DF8047B704780B400AF00BFBD4684
S3150800AB905DF8047B704780B500AF00F085F800BF0C
S3150800ABA080BD000080B400AF064BD3F88830054A54
S3150800ABB043F47003C2F8883000BFBD465DF8047BD5
S3150800ABC0704700BF00ED00E0DFF834D0FFF7EAFF7A
S3150800ABD00C480D490D4A002302E0D458C4500433EA
S3150800ABE0C4188C42F9D30A4A0A4C002301E01360C0
S3150800ABF00432A242FBD300F069FEFFF755FEFEE7DA
S3150800AC0000000120000000200C00002060B90008A8
S3150800AC100C0000205C000020FEE7000080B500AFB5
S3150800AC20084B1B68074A43F010031360032000F023
S3150800AC3039FC002000F008F8FFF70AFF0023184641
S3150800AC4080BD00BF0020024080B582B000AF7860AA
S3150800AC50124B1A68124B1B7819464FF47A73B3FBDA
S3150800AC60F1F3B2FBF3F3184600F043FC0346002B5E
S3150800AC7001D001230EE07B680F2B0AD800227968E1
S3150800AC804FF0FF3000F019FC064A7B68136000237A
S3150800AC9000E0012318460837BD4680BD00000020A5
S3150800ACA0080000200400002080B400AF064B1B7883
S3150800ACB01A46064B1B681344044A136000BFBD4678
S3150800ACC05DF8047B704700BF08000020580000208C
S3150800ACD080B400AF034B1B681846BD465DF8047B7D
S3150800ACE0704700BF5800002080B584B000AF786078
S3150800ACF07B68002B01D10123EDE07B6893F82030B7
S3150800AD00DBB2002B02D17868FFF7C6FE7B681B68AA
S3150800AD101A687B681B6842F001021A60FFF7D8FFC1
S3150800AD20F86012E0FFF7D4FF0246FB68D31A0A2B35
S3150800AD300BD97B685B6A43F400327B685A627B688E
S3150800AD40052283F820200123C5E07B681B685B6821
S3150800AD5003F00103002BE5D07B681B681A687B6843
S3150800AD601B6822F002021A60FFF7B2FFF86012E0D1
S3150800AD70FFF7AEFF0246FB68D31A0A2B0BD97B688E
S3150800AD805B6A43F400327B685A627B68052283F863
S3150800AD90202001239FE07B681B685B6803F00203A1
S3150800ADA0002BE5D17B681B7E012B08D17B681B68CD
S3150800ADB01A687B681B6842F080021A6007E07B68A5
S3150800ADC01B681A687B681B6822F080021A607B6819
S3150800ADD05B7E012B08D17B681B681A687B681B6839
S3150800ADE042F040021A6007E07B681B681A687B68B5
S3150800ADF01B6822F040021A607B689B7E012B08D1F3
S3150800AE007B681B681A687B681B6842F020021A6018
S3150800AE1007E07B681B681A687B681B6822F02002BB
S3150800AE201A607B68DB7E012B08D17B681B681A6871
S3150800AE307B681B6822F010021A6007E07B681B68B3
S3150800AE401A687B681B6842F010021A607B681B7FD1
S3150800AE50012B08D17B681B681A687B681B6842F05F
S3150800AE6008021A6007E07B681B681A687B681B681B
S3150800AE7022F008021A607B685B7F012B08D17B6889
S3150800AE801B681A687B681B6842F004021A6007E0B0
S3150800AE907B681B681A687B681B6822F004021A60C4
S3150800AEA07B689A687B68DB681A437B681B691A4368
S3150800AEB07B685B6942EA03017B685B685A1E7B68AC
S3150800AEC01B680A43DA617B6800225A627B680122A2
S3150800AED083F82020002318461037BD4680BD80B46D
S3150800AEE087B000AF786039607B681B687B617B68D8
S3150800AEF093F82030FB74FB7C012B03D0FB7C022BE0
S3150800AF0040F0AA807B69D3F8003243F001027B69DE
S3150800AF10C3F800223B685B6903F01F03012202FAAB
S3150800AF2003F3FB607B69D3F81C22FB68DB431A40FA
S3150800AF307B69C3F81C223B68DB69002B23D17B693C
S3150800AF40D3F80C22FB68DB431A407B69C3F80C2252
S3150800AF503B68DB6819043B685B689BB23A685269D0
S3150800AF6019437B69483243F832103B689B681904D9
S3150800AF703B681B689AB23B685B690A437969483340
S3150800AF80DB000B445A603B68DB69012B22D17B69E5
S3150800AF90D3F80C22FB681A437B69C3F80C223B687A
S3150800AFA01B6819043B685B689BB23A685269194387
S3150800AFB07B69483243F832103B689B6819043B6842
S3150800AFC0DB689AB23B685B690A4379694833DB00F8
S3150800AFD00B445A603B689B69002B09D17B69D3F8FF
S3150800AFE00422FB68DB431A407B69C3F8042207E0A6
S3150800AFF07B69D3F80422FB681A437B69C3F80422E9
S3150800B0003B681B69002B09D17B69D3F81422FB68BE
S3150800B010DB431A407B69C3F8142207E07B69D3F83F
S3150800B0201422FB681A437B69C3F814223B681B6A1F
S3150800B030012B07D17B69D3F81C22FB681A437B696D
S3150800B040C3F81C227B69D3F8003223F001027B691E
S3150800B050C3F80022002306E07B685B6A43F480227B
S3150800B0607B685A62012318461C37BD465DF8047B87
S3150800B070704780B584B000AF78607B6893F820305D
S3150800B080DBB2012B2ED17B68022283F820207B6855
S3150800B0901B681A687B681B6822F001021A60FFF7B2
S3150800B0A017FEF86012E0FFF713FE0246FB68D31A94
S3150800B0B00A2B0BD97B685B6A43F400327B685A62B9
S3150800B0C07B68052283F82020012312E07B681B6831
S3150800B0D05B6803F00103002BE5D17B6800225A6206
S3150800B0E0002306E07B685B6A43F400227B685A62A9
S3150800B0F0012318461037BD4680BD80B487B000AF1F
S3150800B100F860B9607A603B60FB6893F82030FB759D
S3150800B110FB7D012B03D0FB7D022B40F00381BB682E
S3150800B120002B0ED1FB681B68DB6803F00303002BBA
S3150800B13016D1FB685B6A43F40012FB685A62012366
S3150800B140F7E0FB681B681B6903F00303002B07D1B4
S3150800B150FB685B6A43F40012FB685A620123E8E065
S3150800B160FB681A68BB681B331B0113441B6803F092
S3150800B17004027B689A607B689B68002B0CD1FB688D
S3150800B1801A68BB681B331B0113441B685B0DC3F3AA
S3150800B1900A027B681A600BE0FB681A68BB681B33F7
S3150800B1A01B0113441B68DB0823F060427B685A6066
S3150800B1B0FB681A68BB681B331B0113441B6803F042
S3150800B1C002027B68DA60FB681A68BB681B331B01DE
S3150800B1D0134404331B6803F00803002B03D07B6871
S3150800B1E008221A610BE0FB681A68BB681B331B014F
S3150800B1F0134404331B6803F00F027B681A61FB686B
S3150800B2001A68BB681B331B01134404331B681B0AEB
S3150800B210DAB27B689A61FB681A68BB681B331B0144
S3150800B220134404331B681B0C9AB27B685A61FB688B
S3150800B2301A68BB681B01134403F5DC731B68DAB292
S3150800B2403B681A70FB681A68BB681B01134403F550
S3150800B250DC731B681A0A3B680133D2B21A70FB68A2
S3150800B2601A68BB681B01134403F5DC731B681A0CC8
S3150800B2703B680233D2B21A70FB681A68BB681B01B6
S3150800B280134403F5DC731B681A0E3B680333D2B20A
S3150800B2901A70FB681A68BB681B01134403F5DE7352
S3150800B2A01A683B680433D2B21A70FB681A68BB681E
S3150800B2B01B01134403F5DE731B681A0A3B68053342
S3150800B2C0D2B21A70FB681A68BB681B01134403F5EF
S3150800B2D0DE731B681A0C3B680633D2B21A70FB6819
S3150800B2E01A68BB681B01134403F5DE731B681A0E44
S3150800B2F03B680733D2B21A70BB68002B08D1FB68CB
S3150800B3001B68DA68FB681B6842F02002DA6007E00F
S3150800B310FB681B681A69FB681B6842F020021A6101
S3150800B320002306E0FB685B6A43F48022FB685A62E6
S3150800B330012318461C37BD465DF8047B704700009C
S3150800B34080B485B000AF78607B6803F00703FB60C4
S3150800B3500C4BDB68BB60BA684FF6FF031340BB6053
S3150800B360FB681A02BB68134343F0BF6343F4003318
S3150800B370BB60044ABB68D36000BF1437BD465DF89E
S3150800B380047B704700ED00E080B400AF044BDB6837
S3150800B3901B0A03F007031846BD465DF8047B704791
S3150800B3A000ED00E080B483B000AF03463960FB715E
S3150800B3B097F90730002B0ADB3B68DAB20C4997F994
S3150800B3C007301201D2B20B4483F800230AE03B6827
S3150800B3D0DAB20849FB7903F00F03043B1201D2B233
S3150800B3E00B441A7600BF0C37BD465DF8047B7047E0
S3150800B3F000E100E000ED00E080B489B000AFF8603D
S3150800B400B9607A60FB6803F00703FB61FB69C3F167
S3150800B4100703042B28BF0423BB61FB690433062BEF
S3150800B42002D9FB69033B00E000237B614FF0FF3242
S3150800B430BB6902FA03F3DA43BB681A407B699A4090
S3150800B4404FF0FF317B6901FA03F3D9437B680B4060
S3150800B450134318462437BD465DF8047B7047000041
S3150800B46080B582B000AF78607B68013BB3F1807F1E
S3150800B47001D301230FE00A4A7B68013B53600F2181
S3150800B4804FF0FF30FFF78EFF054B00229A60044B02
S3150800B49007221A60002318460837BD4680BD00BF3C
S3150800B4A010E000E080B582B000AF78607868FFF7FA
S3150800B4B047FF00BF0837BD4680BD80B586B000AFE0
S3150800B4C00346B9607A60FB7300237B61FFF75CFF74
S3150800B4D078617A68B9687869FFF78EFF024697F946
S3150800B4E00F3011461846FFF75DFF00BF1837BD46F7
S3150800B4F080BD80B582B000AF78607868FFF7B0FF8E
S3150800B500034618460837BD4680BD000080B487B09C
S3150800B51000AF7860396000237B6160E13B681A6898
S3150800B52001217B6901FA03F31340FB60FB68002BDA
S3150800B53000F052813B685B6803F00303012B05D0DA
S3150800B5403B685B6803F00303022B30D17B689B687A
S3150800B5503B617B695B00032202FA03F3DB433A692A
S3150800B56013403B613B68DA687B695B0002FA03F3C8
S3150800B5703A6913433B617B683A699A607B685B6802
S3150800B5803B6101227B6902FA03F3DB433A69134004
S3150800B5903B613B685B681B0903F001027B6902FAA1
S3150800B5A003F33A6913433B617B683A695A603B681F
S3150800B5B05B6803F00303032B17D07B68DB683B61EA
S3150800B5C07B695B00032202FA03F3DB433A69134003
S3150800B5D03B613B689A687B695B0002FA03F33A6948
S3150800B5E013433B617B683A69DA603B685B6803F042
S3150800B5F00303022B23D17B69DA087B68083253F8E8
S3150800B60022303B617B6903F007039B000F2202FA95
S3150800B61003F3DB433A6913403B613B681A697B696C
S3150800B62003F007039B0002FA03F33A6913433B61ED
S3150800B6307B69DA087B680832396943F822107B6827
S3150800B6401B683B617B695B00032202FA03F3DB4359
S3150800B6503A6913403B613B685B6803F003027B6908
S3150800B6605B0002FA03F33A6913433B617B683A6964
S3150800B6701A603B685B6803F44033002B00F0AC802B
S3150800B6805E4B9B695D4A43F0010393615B4B9B6983
S3150800B69003F00103BB60BB68594A7B699B08023308
S3150800B6A052F823303B617B6903F003039B000F22AA
S3150800B6B002FA03F3DB433A6913403B617B68B3F153
S3150800B6C0904F25D07B684F4A93421FD07B684E4ADD
S3150800B6D0934219D07B684D4A934213D07B684C4AF3
S3150800B6E093420DD07B684B4A934207D07B684A4AFF
S3150800B6F0934201D106230CE007230AE0052308E05C
S3150800B700042306E0032304E0022302E0012300E009
S3150800B71000237A6902F00302920093403A691343C0
S3150800B7203B6137497B699B0802333A6941F8232014
S3150800B7303A4B9B683B61FB68DB433A6913403B61C4
S3150800B7403B685B6803F48013002B03D03A69FB68F7
S3150800B75013433B61314A3B699360304BDB683B617D
S3150800B760FB68DB433A6913403B613B685B6803F45B
S3150800B7700013002B03D03A69FB6813433B61274A41
S3150800B7803B69D360254B5B683B61FB68DB433A69E1
S3150800B79013403B613B685B6803F40033002B03D01E
S3150800B7A03A69FB6813433B611C4A3B6953601B4B70
S3150800B7B01B683B61FB68DB433A6913403B613B68A6
S3150800B7C05B6803F48033002B03D03A69FB681343A4
S3150800B7D03B61124A3B6913607B6901337B613B68B5
S3150800B7E01A687B6922FA03F3002B7FF497AE00BF31
S3150800B7F000BF1C37BD465DF8047B70470010024049
S3150800B800000001400004004800080048000C0048F9
S3150800B81000100048001400480018004800040140C1
S3150800B82080B483B000AF78600B467B8013467B708C
S3150800B8307B78002B03D07A887B689A6102E07A8845
S3150800B8407B689A6200BF0C37BD465DF8047B70477B
S3150800B85080B400AF034B1B681846BD465DF8047BF1
S3150800B860704700BF0000002080B582B000AFFFF728
S3150800B870EFFF01460B4B5B6803F4E0634FF4E062AD
S3150800B8807A607A6892FAA2F23A603A68B2FA82F272
S3150800B890D2B2D340044AD35C21FA03F318460837D8
S3150800B8A0BD4680BD0010024050B9000880B483B080
S3150800B8B000AF7860044A7B68136000BF0C37BD464A
S3150800B8C05DF8047B704700BF0000002070B50D4D81
S3150800B8D00D4C641BA4100026A64209D10B4D0C4C36
S3150800B8E000F018F8641BA4100026A64205D170BD06
S3150800B8F055F8043B98470136EEE755F8043B984758
S3150800B9000136F2E758B9000858B9000858B90008CE
S3150800B9105CB90008F8B500BFF8BC08BC9E4670477D
S3110800B920F8B500BFF8BC08BC9E4670478E
S3150800B92C05020602060307030803090309040A04A9
S3150800B93C0B040C040C050D050E050F050F06100659
S3110800B94C100710080000000001020304A8
S3090800B958E5A200084E
S3090800B95CC1A200086E
S3110800B96000127A00100000000100000030
S7050800ABC97E
